S0120000416C61726D636C6F636B2E7372656319
S11300000C9420010C944A010C944A010C944A016A
S11300100C944A010C944A010C944A010C944A0130
S11300200C944A010C944A010C944A010C944A0120
S11300300C944A010C944A010C94AB0B0C944A01A5
S11300400C944A010C944A010C944A010C944A0100
S11300500C944A010C944A010C944A010C944A01F0
S11300600C944A010C944A010C944A010C944A01E0
S11300700C944A010C944A010C944A010C944A01D0
S11300800C944A010C944A010C944A010C944A01C0
S11300900C944A010C944A010C944A010C944A01B0
S11300A00C944A010C944A010C944A010C944A01A0
S11300B00C944A010C944A010C944A010C944A0190
S11300C00C944A010C944A010C944A010C944A0180
S11300D00C944A010C944A010C944A010C944A0170
S11300E00C944A010C944A010C944A010C944A0160
S11300F00C944A010C944A010C944A010C944A0150
S11301000C944A010C944A010C944A010C944A013F
S11301100C944A010C944A010C944A010C944A012F
S11301200C944A010C944A010C944A010C944A011F
S11301300C944A010C94F8210C944A010C944A0141
S11301400C944A010C944A010C944A010C944A01FF
S11301500C944A010C944A010C944A010C944A01EF
S11301600C944A010C944A010C944A010C944A01DF
S11301700C944A010C944A010C944A010C944A01CF
S11301800C944A010C944A010C944A010C944A01BF
S11301900C944A010C944A010C944A010C944A01AF
S11301A00C944A010C944A010C944A010C944A019F
S11301B00C9457220C944A010C944A010C944A0161
S11301C00C944A010C944A010C944A010C944A017F
S11301D00C944A010C944A010C944A010C944A016F
S11301E00C944A010C944A010C944A010C944A015F
S11301F00C944A010C944A010C944A01091E091EEC
S1130200091E901E5C1E8A1E091E091E901E5C1E7D
S11302100C94091E0C9439220C94EA240C94BA18F8
S11302200C945D210C94EB1B0C945C1E0C948A1EA4
S11302300C9487200C94B7210C94901E0C9489067E
S113024011241FBECFEFCDBFDFE3DEBF00E00CBF44
S1130250E3E1FDE28AEA90E48193E030F907E0F318
S1130260000010E2A0E0B0E2ECE2FDE500E00BBF2C
S113027002C007900D92A638B107D9F72DE2A6E87F
S1130280B0E201C01D92A331B207E1F70E9433200E
S11302900C94942E0C940000CF93DF93CDB7DEB76B
S11302A080EA96E020E1FC01228380EA96E020E2E5
S11302B0FC01228380EA96E020E4FC01228380EAA8
S11302C096E020E8FC0122830000DF91CF9108959D
S11302D0CF93DF93CDB7DEB780EA96E0FC0180854B
S11302E0882F90E0807199279595879595958795A6
S11302F09595879595958795892B89F48091862086
S11303009091872080369A4E20F580918620909196
S11303108720019680938620909387201AC080912D
S11303208620909187200B9768F080918620909189
S11303308720C39718F01092082D07C081E080939E
S1130340082D03C082E08093082D1092862010921D
S1130350872080EA96E0FC018085882F90E08072F7
S113036099279595879595958795959587959595CD
S1130370879595958795892B89F48091882090910C
S1130380892080369A4E20F580918820909189208A
S1130390019680938820909389201AC080918820A8
S11303A0909189200B9768F0809188209091892002
S11303B0C39718F01092092D07C081E08093092D8E
S11303C003C082E08093092D109288201092892026
S11303D080EA96E0FC018085882F90E0807499275C
S11303E0082E892F000C881F990B000C881F991F59
S11303F0892B89F480918A2090918B2080369A4EA3
S113040020F580918A2090918B20019680938A20F8
S113041090938B201AC080918A2090918B200B9707
S113042068F080918A2090918B20C39718F01092E5
S11304300A2D07C081E080930A2D03C082E08093D7
S11304400A2D10928A2010928B2080EA96E0FC01FB
S1130450808588238CF080918C2090918D2080362B
S11304609A4E20F580918C2090918D200196809356
S11304708C2090938D201AC080918C2090918D2097
S11304800B9768F080918C2090918D20C39718F081
S113049010920B2D07C081E080930B2D03C082E0E6
S11304A080930B2D10928C2010928D200000DF91F0
S11304B0CF910895CF93DF931F92CDB7DEB7898391
S11304C08981882F90E08130910579F082309105FF
S11304D01CF4892B39F012C08230910549F003973E
S11304E051F00CC08091082D0AC08091092D07C0DD
S11304F080910A2D04C080910B2D01C082E00F90E1
S1130500DF91CF9108950F93CF93DF9300D000D064
S1130510CDB7DEB78C839D836E838FE390E0FC01BF
S113052080818B83F8948C819D8189839A838BE36A
S113053090E0FC01108289819A812E81FC0108EDF2
S113054004BF20838FE390E02B81FC012083000013
S11305502696CDBFDEBFDF91CF910F910895CF9343
S1130560DF9300D0CDB7DEB789836A834B8380E500
S113057090E02A81222311F020E201C020E0398199
S1130580322B2B81232BFC01228300002396CDBF29
S1130590DEBFDF91CF910895CF93DF931F921F9217
S11305A0CDB7DEB789836A838A818F718A8380E5B8
S11305B090E039812A81232BFC01258300000F90D0
S11305C00F90DF91CF910895CF93DF931F921F92E5
S11305D0CDB7DEB78A8380E590E020E530E0F9010D
S11305E02081322F2A8120952323FC01208380E55A
S11305F090E0FC0190818A818923898389810F900D
S11306000F90DF91CF910895CF93DF9300D0CDB7B2
S1130610DEB78A836B839A818B81892B8983698175
S113062081E490E00E94830200002396CDBFDEBFE8
S1130630DF91CF910895CF93DF931F921F92CDB78F
S1130640DEB78A8380E490E0FC018081982F987F54
S11306508A81892B8983698180E490E00E948302E6
S113066080E490E0FC0190818A81892389838981D7
S11306700F900F90DF91CF910895CF93DF9300D027
S1130680CDB7DEB789839A836B8389819A81FC0114
S11306908081982F907F8B81892B282F89819A8143
S11306A0FC01208300002396CDBFDEBFDF91CF91F4
S11306B00895CF93DF9300D0CDB7DEB789839A83B3
S11306C06B8389819A81FC018181982F987F8B812A
S11306D0892B282F89819A81FC012183000023968C
S11306E0CDBFDEBFDF91CF910895CF93DF9300D0CC
S11306F0CDB7DEB789839A836B8389819A81FC01A4
S11307008681982F9C7F8B81892B282F89819A81C0
S1130710FC01268300002396CDBFDEBFDF91CF917D
S11307200895CF93DF9300D01F92CDB7DEB78983AE
S11307309A836B837C838BE20E94A503000024963A
S1130740CDBFDEBFDF91CF910895CF93DF931F928A
S11307501F92CDB7DEB78A838A818B3219F481E088
S113076089830EC08A818C3219F482E0898308C09F
S11307708A818F3219F483E0898302C084E08983FB
S11307800E94C80300000F900F90DF91CF9108954D
S1130790CF93DF93CDB7DEB7000084E390E028ED7C
S11307A0FC01208388E790E021E0FC012183000024
S11307B0DF91CF910895CF93DF931F921F92CDB70E
S11307C0DEB780E190E00E94180789839A838981CB
S11307D09A81892B61F089819A81FC0110821182AE
S11307E01282138289819A8104960E946A07898100
S11307F09A810F900F90DF91CF910895CF92DF925D
S1130800EF92FF920F931F93CF93DF93CDB7DEB791
S11308106D97CDBFDEBF8A8B9B8B4C8B5D8B6E8BB4
S11308207F8B288F098FCA8EDB8EEC8EFD8E8A8992
S11308309B8989879A871D821E821F8218861B8640
S11308400E94D31389859A85FC0180819181A281BC
S1130850B3818C879D87AE87BF872C893D894E895C
S11308605F898C859D85AE85BF85098DBC01CD01D1
S11308700E94A706888B8889882359F18C859D85D9
S1130880AE85BF8589839A83AB83BC831A8E1B8E06
S11308901C8E1D8E888D882309F465C089859A85F0
S11308A0FC0120813181428153818C899D89AE89EB
S11308B0BF8980959095A095B09582239323A42316
S11308C0B52329853A85F90180839183A283B38373
S11308D04AC08A8D9B8DAC8DBD8D892B8A2B8B2B29
S11308E059F48C859D85AE85BF8589839A83AB83B6
S11308F0BC8381E08B8737C0888D882349F08D8144
S11309009E81AF81B885B1608D839E83AF83B887A4
S1130910898D882349F08D819E81AF81B885B4602B
S11309208D839E83AF83B8872C893D894E895F89E7
S11309308D819E81AF81B885822B932BA42BB52BFF
S113094029853A85F90134962A8D3B8D4C8D5D8D30
S113095089019A01AC01BD01CF010E94A61619823A
S11309601A821B821C820E94E013898B8A8D9B8DC4
S1130970AC8DBD8D892B8A2B8B2B09F465C089899D
S1130980882311F40E94010B0E94EE19DC01CB01B3
S113099089839A83AB83BC8389819A81AB81BC812F
S11309A088279927AA27B270892B8A2B8B2B09F0C9
S11309B042C0F091A200FF93F87FF093A2008985D2
S11309C09A85FC0180819181A281B38189839A8374
S11309D0AB83BC832C893D894E895F8989819A8147
S11309E0AB81BC81098DBC01CD010E94A70688237F
S11309F0E9F0888D8823D1F089859A85FC012081CE
S1130A003181428153818C899D89AE89BF898095CA
S1130A109095A095B09582239323A423B52329858B
S1130A203A85F90180839183A283B38381E08B8724
S1130A30FF91F093A20089819A81AB81BC81BB278D
S1130A4089839A83AB83BC8389819A81AB81BC817E
S1130A50BC01CD016D96CDBFDEBFDF91CF911F915B
S1130A600F91FF90EF90DF90CF900895CF93DF9395
S1130A70CDB7DEB72C97CDBFDEBF8F83988749876C
S1130A805A876B877C878F81988589839A83F091B5
S1130A90A200FF93F87FF093A20089819A81FC0160
S1130AA080819181A281B3818B839C83AD83BE833A
S1130AB089819A81FC012081318142815381898518
S1130AC09A85AB85BC8580959095A095B095822339
S1130AD09323A423B52329813A81F9018083918347
S1130AE0A283B383FF91F093A2008B819C81AD819B
S1130AF0BE81BC01CD012C96CDBFDEBFDF91CF916D
S1130B000895CF93DF93CDB7DEB76D97CDBFDEBF2A
S1130B10888F998F4A8F5B8F6C8F7D8F1B821C828D
S1130B201D821E82888D998D888799871F8288856A
S1130B30998504968A879B878A859B8503968C87EB
S1130B409D870E94D3138A859B85FC0187819085AC
S1130B5089839A8388859985FC012081318142812A
S1130B6053818A8D9B8DAC8DBD8D822B932BA42BB1
S1130B70B52B28853985F90180839183A283B383BA
S1130B8095C089819A81FC01848195818E879F8794
S1130B9089819A81FC0180819181A281B381888BB2
S1130BA0998BAA8BBB8B1F8288899989AA89BB8957
S1130BB088279927AA278C8B9D8BAE8BBF8B88891E
S1130BC09989AA89BB89BB27888B998BAA8BBB8BF4
S1130BD08C899D89AE89BF8988279927AA27B470F3
S1130BE0892B8A2B8B2BB1F488859985FC01208174
S1130BF031814281538188899989AA89BB89822359
S1130C009323A423B523892B8A2B8B2BE9F081E032
S1130C108F831AC088859985FC01208131814281A6
S1130C20538188899989AA89BB89282339234A232E
S1130C305B2388899989AA89BB89281739074A07B8
S1130C405B0711F481E08F838F81882359F18C89AC
S1130C509D89AE89BF8988279927AA27B170892BD6
S1130C608A2B8B2B81F02B813C814D815E8188897D
S1130C709989AA89BB89822B932BA42BB52B8B83AF
S1130C809C83AD83BE8388859985FC018081918195
S1130C90A281B381B26029813A81AC01BD01C9014D
S1130CA00E9481178E859F8589839A8329813A8141
S1130CB08C859D852817390709F063CF8885998528
S1130CC0FC0120813181428153818B819C81AD81E2
S1130CD0BE8180959095A095B09582239323A423FB
S1130CE0B52328853985F90180839183A283B38351
S1130CF00E94E01388859985FC0180819181A281FD
S1130D00B381BC01CD016D96CDBFDEBFDF91CF9124
S1130D100895CF93DF9300D000D0CDB7DEB7898399
S1130D209A834B835C836D837E838B819C81AD81AD
S1130D30BE8129813A81AC01BD01C9010E948105AE
S1130D4000002696CDBFDEBFDF91CF9108950F93AB
S1130D50CF93DF93CDB7DEB72A97CDBFDEBF6A83CB
S1130D607B838C839D832E833F83488759870A879F
S1130D7019828A85882399F42A813B814C815D817B
S1130D808E819F81A885B98582239323A423B523CB
S1130D90892B8A2B8B2BD1F081E0898317C02A8180
S1130DA03B814C815D818E819F81A885B9852823F3
S1130DB039234A235B238E819F81A885B98528170F
S1130DC039074A075B0711F481E0898389812A96F0
S1130DD0CDBFDEBFDF91CF910F9108950F931F9385
S1130DE0CF93DF93CDB7DEB72997CDBFDEBF8A831C
S1130DF09B834C835D836E837F8328873987288513
S1130E0039858C819D81AE81BF816A817B81890115
S1130E109C01AD0189E896E00E949A1F898389812B
S1130E202996CDBFDEBFDF91CF911F910F91089519
S1130E30CF93DF9300D01F92CDB7DEB78B839C8313
S1130E4019821A820E94D3132091462C3091472C88
S1130E508B819C81820F931F883B9B4018F52091C6
S1130E60462C3091472C8B819C81280F391F80910F
S1130E70462C9091472C82179307A0F48091462C1E
S1130E809091472C82579F4D89839A832091462CB9
S1130E903091472C8B819C81820F931F8093462C29
S1130EA09093472C0E94E01389819A812496CDBFA8
S1130EB0DEBFDF91CF910895CF93DF931F921F92EE
S1130EC0CDB7DEB789839A8300000F900F90DF912E
S1130ED0CF910895CF93DF931F921F92CDB7DEB7C2
S1130EE089839A8389819A819C012D5F3F4F8981EF
S1130EF09A81FC012183328329813A818FEF9FEF0C
S1130F00DC01F90183839483A583B68389819A8163
S1130F109C012D5F3F4F89819A81FC012783308793
S1130F2089819A819C012D5F3F4F89819A81FC01BF
S1130F302187328789819A81FC01108200000F90F9
S1130F400F90DF91CF910895CF93DF931F921F925B
S1130F50CDB7DEB789839A8389819A81FC01128691
S1130F60138600000F900F90DF91CF910895CF93D7
S1130F70DF9300D000D0CDB7DEB78B839C836D8325
S1130F807E838B819C81FC018181928189839A83F8
S1130F908D819E8129813A81FC0124833583898155
S1130FA09A81FC01268137818D819E81FC012683F3
S1130FB0378389819A81FC01868197812D813E81C5
S1130FC0FC012483358389819A812D813E81FC0132
S1130FD0268337838D819E812B813C81FC0122876E
S1130FE033878B819C81FC01808121E0280F8B81D8
S1130FF09C81FC01208300002696CDBFDEBFDF91DB
S1131000CF910895CF93DF93CDB7DEB72A97CDBFA5
S1131010DEBF8F83988769877A8789859A85FC01E3
S113102080819181A281B3818B839C83AD83BE83B4
S11310308B819C81AD81BE818F3F9F4FAF4FBF4F4E
S113104041F48F819885FC018185928589839A83F7
S113105020C08F819885039689839A8307C08981EC
S11310609A81FC018481958189839A8389819A81FB
S1131070FC0184819581FC0120813181428153816D
S11310808B819C81AD81BE8182179307A407B5072C
S113109030F789819A81FC012481358189859A857B
S11310A0FC012483358389859A85FC01848195819B
S11310B029853A85FC012683378389859A85298188
S11310C03A81FC012683378389819A8129853A856F
S11310D0FC012483358389859A852F813885FC0119
S11310E0228733878F819885FC01808121E0280F36
S11310F08F819885FC01208300002A96CDBFDEBF36
S1131100DF91CF910895CF93DF9300D01F92CDB795
S1131110DEB78B839C838B819C81FC0182859385C4
S113112089839A838B819C81FC01848195812B81A5
S11311303C81F90126813781FC01268337838B8129
S11311409C81FC01868197812B813C81F90124815A
S11311503581FC012483358389819A81FC012181B5
S113116032818B819C812817390751F48B819C81B2
S1131170FC012681378189819A81FC012183328394
S11311808B819C81FC011286138689819A81FC01E2
S113119080812FEF280F89819A81FC012083898126
S11311A09A81FC0180812496CDBFDEBFDF91CF916F
S11311B008951F93CF93DF93CDB7DEB780EA90E015
S11311C0FC01128180EA90E020EA30E0F9012281FA
S11311D0287FFC012283812FDF91CF911F910895F5
S11311E0CF93DF93CDB7DEB72A97CDBFDEBF8D8314
S11311F09E836F83788749875A878D819E8121E1F9
S1131200FC0120838D819E8101978D839E838D8136
S11312109E8122E2FC0120838D819E8101978D8332
S11312209E838D819E8123E3FC0120838D819E8199
S113123001978D839E838F819885CC01A0E0B0E0D7
S113124089839A83AB83BC8329818D819E81FC0130
S113125020838D819E8101978D839E8389819A81CC
S1131260AB81BC81892F9A2FAB2FBB2789839A83AB
S1131270AB83BC8329818D819E81FC0120838D8178
S11312809E8101978D839E8389819A81AB81BC81E4
S1131290892F9A2FAB2FBB2789839A83AB83BC8377
S11312A029818D819E81FC0120838D819E810197FE
S11312B08D839E838D819E8121E3FC0120838D811A
S11312C09E8101978D839E838D819E8120E8FC0100
S11312D020838D819E8101978D839E838D819E8144
S11312E027E8FC0120838D819E8101978D839E8355
S11312F08D819E81FC0110828D819E8101978D8359
S11313009E838D819E81FC0110828D819E81019737
S11313108D839E838D819E8122E0FC0120838D81BB
S11313209E8101978D839E838D819E8123E0FC01A4
S113133020838D819E8101978D839E838D819E81E3
S113134024E0FC0120838D819E8101978D839E83FF
S11313508D819E8125E0FC0120838D819E810197F2
S11313608D839E838D819E8126E0FC0120838D8167
S11313709E8101978D839E838D819E8127E0FC0150
S113138020838D819E8101978D839E838D819E8193
S113139028E0FC0120838D819E8101978D839E83AB
S11313A08D819E8129E0FC0120838D819E8101979E
S11313B08D839E838D819E8120E1FC0120838D811C
S11313C09E8101978D839E838D819E8121E1FC0105
S11313D020838D819E8101978D839E838D819E8143
S11313E022E1FC0120838D819E8101978D839E8360
S11313F08D819E8123E1FC0120838D819E81019753
S11314008D839E838D819E8124E1FC0120838D81C7
S11314109E8101978D839E838D819E8125E1FC01B0
S113142020838D819E8101978D839E838D819E81F2
S113143026E1FC0120838D819E8101978D839E830B
S11314408D819E8127E1FC0120838D819E810197FE
S11314508D839E838D819E8128E1FC0120838D8173
S11314609E8101978D839E838D819E8129E1FC015C
S113147020838D819E8101978D839E838D819E81A2
S113148020E2FC0120838D819E8101978D839E83C0
S11314908D819E8121E2FC0120838D819E810197B3
S11314A08D839E838D819E8122E2FC0120838D8128
S11314B09E8101978D839E838D819E8123E2FC0111
S11314C020838D819E8101978D839E8389859A8552
S11314D0CC01A0E0B0E089839A83AB83BC832981EB
S11314E08D819E81FC0120838D819E8101978D8356
S11314F09E8389819A81AB81BC81892F9A2FAB2FDE
S1131500BB2789839A83AB83BC8329818D819E8188
S1131510FC0120838D819E8101978D839E838D8123
S11315209E8126E2FC0120838D819E8101978D831B
S11315309E838D819E8127E2FC0120838D819E8183
S113154001978D839E838D819E8128E2FC012083F7
S11315508D819E8101978D839E838D819E8129E259
S1131560FC0120838D819E8101978D839E838D81D3
S11315709E8120E3FC0120838D819E8101978D83D0
S11315809E838D819E812A96CDBFDEBFDF91CF9150
S11315900895CF93DF93CDB7DEB70E94100CA091CE
S11315A0482CB091492C0D900DBE0D900EBEEF91BC
S11315B0DF91CF91BF91AF919F918F917F916F9167
S11315C05F914F913F912F911F910F91FF90EF9059
S11315D0DF90CF90BF90AF909F908F907F906F904F
S11315E05F904F903F902F901F900F90FF91F0933A
S11315F0A200FF91FFBFFF91089581E0DF91CF9199
S11316000895FF93FFB7FF93F091A200FF93F87F33
S1131610F093A2000F921F9211242F923F924F92A7
S11316205F926F927F928F929F92AF92BF92CF926E
S1131630DF92EF92FF920F931F932F933F934F9359
S11316405F936F937F938F939F93AF93BF93CF9346
S1131650DF93EF93A091482CB091492C0DB60D92D5
S11316600EB60D920E94AE15A091482CB091492C53
S11316700D900DBE0D900EBEEF91DF91CF91BF91F5
S1131680AF919F918F917F916F915F914F913F9116
S11316902F911F910F91FF90EF90DF90CF90BF900B
S11316A0AF909F908F907F906F905F904F903F90FE
S11316B02F901F900F90FF91F093A200FF91FFBF16
S11316C0FF91089500001F93CF93DF931F92CDB72E
S11316D0DEB7898380910C2D982F8981892B809383
S11316E00C2D80EA90E0FC018081813061F080EA79
S11316F090E0FC018081823031F080EA90E0FC01CE
S11317008081843079F480910C2D882359F00E94D3
S1131710D908182F10920C2D0E94AE1580EA90E083
S1131720FC01128300000F90DF91CF911F91089567
S11317301F93CF93DF93CDB7DEB70E94D908182F3C
S11317400E949E1480EA90E0FC0112830000DF9165
S1131750CF911F910895FF93FFB7FF93F091A200DB
S1131760FF93F87FF093A2000F921F9211242F92FF
S11317703F924F925F926F927F928F929F92AF921D
S1131780BF92CF92DF92EF92FF920F931F932F930A
S11317903F934F935F936F937F938F939F93AF93F5
S11317A0BF93CF93DF93EF93A091482CB091492C32
S11317B00DB60D920EB60D920E94980B81E00E9418
S11317C0630BA091482CB091492C0D900DBE0D9047
S11317D00EBEEF91DF91CF91BF91AF919F918F9109
S11317E07F916F915F914F913F912F911F910F9135
S11317F0FF90EF90DF90CF90BF90AF909F908F902D
S11318007F906F905F904F903F902F901F900F901C
S1131810FF91F093A200FF91FFBFFF911895000084
S1131820CF93DF9300D01F92CDB7DEB780E09DE762
S1131830A0E0B0E089839A83AB83BC8389819A81D9
S1131840AB81BC81689415F8B695A7959795879553
S11318501694D1F789839A83AB83BC8389819A8157
S1131860AB81BC810197A109B10989839A83AB83B8
S1131870BC8380E098E029813A81FC0126A337A348
S113188065E080E098E00E943D0361E080E098E03C
S11318900E94750300002496CDBFDEBFDF91CF9177
S11318A00895CF93DF93CDB7DEB72597CDBFDEBFC5
S11318B08B839C836D838B819C8189839A83F09134
S11318C0A200FF93F87FF093A20089819A81FC0122
S11318D08081918129813A81F901278D422F50E03D
S11318E029813A81F90120A1222F30E0429FB001E1
S11318F0439F700D529F700D11249B01280F391FB7
S113190089819A81FC012283338389819A81FC0134
S1131910168E89819A81FC012081318189819A8185
S1131920FC012483358389819A81FC018081918122
S113193029813A81F901278D222F30E0A9014150F4
S1131940510929813A81F90120A1222F30E0429FD7
S1131950B001439F700D529F700D11249B01280FFD
S1131960391F89819A81FC012683378389819A8171
S11319702FEFFC0121A389819A812FEFFC0122A37F
S11319808D81882381F489819A81FC018085882353
S1131990A1F089819A8108960E941917882369F019
S11319A00E94010B0AC089819A8108960E946A07E5
S11319B089819A8143960E946A07FF91F093A2005D
S11319C081E02596CDBFDEBFDF91CF9108950F93BF
S11319D01F93CF93DF93CDB7DEB72997CDBFDEBF7B
S11319E08F83688749878885882319F419821A8226
S11319F00FC08F81482F50E08885282F30E0429F08
S1131A00C001439F900D529F900D112489839A83A6
S1131A1089819A8185960E9418078B839C838B8188
S1131A209C81892B81F08B819C8185968D839E83FB
S1131A302B813C818D819E8189012985AC0168853A
S1131A408F810E942D0D8B819C812996CDBFDEBF95
S1131A50DF91CF911F910F9108950F931F93CF930F
S1131A60DF93CDB7DEB72797CDBFDEBF89836A8307
S1131A704B835C832D830E831F838A81882341F4E7
S1131A808E819F812E813F81FC012083318307C099
S1131A908E819F812B813C81FC01208331838E8147
S1131AA09F812981FC01278F8E819F812A81FC01DE
S1131AB020A38E819F8161E00E94510C8E819F81C1
S1131AC02D81FC0124A300002796CDBFDEBFDF914A
S1131AD0CF911F910F9108950F93CF93DF93CDB7BB
S1131AE0DEB76297CDBFDEBF8A879B876C877D8711
S1131AF02E873F87488B598B0A8B19828A859B8551
S1131B008A839B83F091A200FF93F87FF093A20055
S1131B108A819B81FC01268D8A819B81FC01878DB2
S1131B20281718F08A89823019F52C853D858A8119
S1131B309B814A89B9010E946A0F8C838A819B81A7
S1131B40FC018389882351F08A819B8143960E94FA
S1131B501917882341F00E94010B05C08C8188234A
S1131B6011F00E94010BFF91F093A20081E06FC07D
S1131B708E859F85A889B989892B8A2B8B2B29F47B
S1131B80FF91F093A20080E062C08981882331F440
S1131B90CE0105960E94E41781E08983FF91F093BA
S1131BA0A2000E94D313F091A200FF93F87FF09358
S1131BB0A2008A819B81FC0181A18F3F21F48A814B
S1131BC09B81FC0111A28A819B81FC0182A18F3F30
S1131BD021F48A819B81FC0112A2FF91F093A2005F
S1131BE09E01225F3F4FCE010596B9010E9407185E
S1131BF0882331F58A819B810E940A118823C9F0C8
S1131C008E859F85A889B9892A813B81285F3F4FAA
S1131C10AC01BD01C9010E947E168A819B810E948C
S1131C2084100E94E013882309F06CCF0E94010BFA
S1131C3069CF8A819B810E9484100E94E01362CF45
S1131C408A819B810E9484100E94E01380E0629646
S1131C50CDBFDEBFDF91CF910F910895CF93DF9376
S1131C60CDB7DEB72C97CDBFDEBF8E839F83688749
S1131C7079874A875B872C878E819F818A839B83A0
S1131C800E94D9088C838A819B81FC01268D8A81DC
S1131C909B81FC01878D281718F08C85823089F58B
S1131CA08A819B81FC0182A18D83288539858A8163
S1131CB09B814C85B9010E946A0F8D818F3FB9F4D5
S1131CC08A819B81FC0183898823C1F08A819B815D
S1131CD043960E941917882389F08A859B85892B4E
S1131CE069F08A859B8521E0FC01208307C08D81F2
S1131CF08F5F282F8A819B81FC0122A381E0898345
S1131D0001C0198280EA90E02C81FC012283898140
S1131D102C96CDBFDEBFDF91CF910895CF93DF9393
S1131D20CDB7DEB76197CDBFDEBF8A879B876C874F
S1131D307D872E873F87488B598B19828A859B859F
S1131D408A839B83F091A200FF93F87FF093A20013
S1131D508A819B81FC01868D8C838C81882311F17F
S1131D602C853D858A819B81B9010E9434108C8128
S1131D702FEF280F8A819B81FC01268F8A819B810A
S1131D80FC018085882349F08A819B8108960E9402
S1131D901917882311F00E94010BFF91F093A20000
S1131DA081E076C08E859F85A889B989892B8A2B85
S1131DB08B2B29F4FF91F093A20080E069C0898104
S1131DC0882331F4CE0105960E94E41781E08983CB
S1131DD0FF91F093A2000E94D313F091A200FF930D
S1131DE0F87FF093A2008A819B81FC0181A18F3F3F
S1131DF021F48A819B81FC0111A28A819B81FC01CF
S1131E0082A18F3F21F48A819B81FC0112A2FF9160
S1131E10F093A2009E01225F3F4FCE010596B901C7
S1131E200E940718882331F58A819B810E94E9105A
S1131E308823C9F08E859F85A889B9892A813B8129
S1131E402D5E3F4FAC01BD01C9010E947E168A81FF
S1131E509B810E9484100E94E013882309F072CFB2
S1131E600E94010B6FCF8A819B810E9484100E9483
S1131E70E01368CF8A819B810E9484100E94E01342
S1131E808A819B810E94E910882309F45BCF80E05A
S1131E906196CDBFDEBFDF91CF910895CF93DF93DD
S1131EA000D0CDB7DEB78A839B83F091A200FF9365
S1131EB0F87FF093A2008A819B81FC01868D89833F
S1131EC0FF91F093A20089812396CDBFDEBFDF91FD
S1131ED0CF910895CF93DF93CDB7DEB72797CDBFCA
S1131EE0DEBF8B839C836D837E834F8319828B81BA
S1131EF09C81FC01868D8A838B819C81FC0180A15D
S1131F008823B1F48B819C81FC0180819181892B90
S1131F1009F09CC08B819C81FC01828193810E9489
S1131F20621989838B819C81FC01128213828EC089
S1131F308F818823D9F58B819C81FC0180A1482F56
S1131F4050E08B819C81FC01848195812D813E81AF
S1131F50B9010E943B2E8B819C81FC012481358137
S1131F608B819C81FC0180A1882F90E0280F391F70
S1131F708B819C81FC01248335838B819C81FC01B2
S1131F80248135818B819C81FC0182819381281776
S1131F90390708F45BC08B819C81FC01208131816D
S1131FA08B819C81FC012483358350C08B819C816F
S1131FB0FC0180A1482F50E08B819C81FC0186812B
S1131FC097812D813E81B9010E943B2E8B819C819A
S1131FD0FC01268137818B819C81FC0180A1882FA3
S1131FE090E0919581959109280F391F8B819C81EF
S1131FF0FC01268337838B819C81FC0126813781F8
S11320008B819C81FC018081918128173907A8F478
S11320108B819C81FC01228133818B819C81FC0119
S113202080A1882F90E0919581959109280F391FFF
S11320308B819C81FC01268337838F81823031F42C
S11320408A81882319F08A8181508A838A8121E0D8
S1132050280F8B819C81FC01268F89812796CDBF17
S1132060DEBFDF91CF910895CF93DF9300D01F920D
S1132070CDB7DEB789839A836B837C8389819A8108
S1132080FC0180A18823C9F189819A81FC01268100
S1132090378189819A81FC0180A1882F90E0280FE3
S11320A0391F89819A81FC012683378389819A812A
S11320B0FC012681378189819A81FC018281938187
S11320C02817390750F089819A81FC0120813181D8
S11320D089819A81FC012683378389819A81FC0155
S11320E080A1482F50E089819A81FC0126813781A3
S11320F08B819C81B9010E943B2E00002496CDBFA8
S1132100DEBFDF91CF910895CF93DF9300D01F926C
S1132110CDB7DEB78B839C83F091A200FF93F87F49
S1132120F093A2008B819C81FC0182A1898312C05F
S11321308B819C81FC018389882381F08B819C8124
S113214043960E941917882311F00E94AF188981C1
S113215081508983898118165CF301C000008B814A
S11321609C812FEFFC0122A3FF91F093A200F09138
S1132170A200FF93F87FF093A2008B819C81FC0165
S113218081A18A8312C08B819C81FC018085882374
S113219081F08B819C8108960E941917882311F085
S11321A00E94AF188A8181508A838A8118165CF351
S11321B001C000008B819C812FEFFC0121A3FF91C2
S11321C0F093A20000002496CDBFDEBFDF91CF9133
S11321D00895CF93DF9300D0CDB7DEB78A839B8376
S11321E0F091A200FF93F87FF093A2008A819B8173
S11321F0FC01868D882319F481E0898301C019824A
S1132200FF91F093A20089812396CDBFDEBFDF91B9
S1132210CF910895CF93DF9300D0CDB7DEB78A83F3
S11322209B83F091A200FF93F87FF093A2008A8130
S11322309B81FC01268D8A819B81FC01878D281757
S113224019F481E0898301C01982FF91F093A200FF
S113225089812396CDBFDEBFDF91CF910895CF93BF
S1132260DF93CDB7DEB72997CDBFDEBF8B839C83C9
S11322704D835E836F83788729878B819C818983D3
S11322809A83F091A200FF93F87FF093A2008981D2
S11322909A81FC0181A18F3F21F489819A81FC01FB
S11322A011A289819A81FC0182A18F3F21F4898145
S11322B09A81FC0112A2FF91F093A20089819A8174
S11322C0FC01868D882371F489819A81FC017396BF
S11322D08D819E81AF81B8852985AC01BD01CF0177
S11322E00E94E51689819A810E9484100000299633
S11322F0CDBFDEBFDF91CF9108958F929F92AF92B1
S1132300BF92CF92DF92EF92FF920F931F93CF93DE
S1132310DF93CDB7DEB76097CDBFDEBF8E839F83DB
S1132320688779874A875B872C873D870E87EF8686
S1132330F88A8A859B850E9418078C839D838C81EB
S11323409D81892BB9F08EE290E00E941807898361
S11323509A8389819A81892B41F089819A812C8180
S11323603D81FC01238F348F07C08C819D810E94A5
S11323705C0702C019821A8289819A81892B09F12A
S11323808A859B85CC01A0E0B0E009811A814F8544
S113239058892C853D8568857985EE81FF81812C5E
S11323A0912C58016A01EE8489019C01AD01CF0191
S11323B00E94F41189819A810E94D31281E08B8357
S11323C002C08FEF8B838B816096CDBFDEBFDF9120
S11323D0CF911F910F91FF90EF90DF90CF90BF901E
S11323E0AF909F908F9008958F929F92AF92BF92DB
S11323F0CF92DF92EF92FF920F931F93CF93DF93CD
S1132400CDB7DEB76497CDBFDEBF8C839D836E836B
S11324107F83288739874A875B870C871D87EE86E9
S1132420CF86D88AA98ABA8A8B8A9C8A28853985D4
S113243089899A89FC01838D948DA90165EA70E0EC
S11324400E94442E89899A89FC01238D348D8885C4
S113245099850197820F931F8A839B83198221C0D8
S11324608981882F90E02981222F30E04E815F817D
S1132470240F351FF901408129893A89820F931F5E
S11324804D96FC0140838981882F90E02E813F8105
S1132490820F931FFC018081882339F089818F5F2B
S11324A0898389818830E0F201C0000089899A8992
S11324B0FC0114A28E85843010F083E08E87898914
S11324C09A892E85FC01228F89899A892E85FC019F
S11324D027A389899A89FC0110A689899A89029679
S11324E00E94A40789899A890E960E94A407898963
S11324F09A8929893A89FC01228733878E85882F16
S113250090E0A0E0B0E024E030E040E050E0790169
S11325108A01E81AF90A0A0B1B0BD801C701298999
S11325203A89F90186879787A08BB18B89899A8923
S113253029893A89FC01268B378B89899A89FC0180
S113254011A612A613A614A689899A89FC0115A6B8
S11325504C855D852C813D818A819B81B9010E94D6
S1132560F0089C0189899A89FC01208331838F8535
S11325709889892B39F08F85988929893A89FC01B2
S11325802083318300006496CDBFDEBFDF91CF91FD
S11325901F910F91FF90EF90DF90CF90BF90AF907D
S11325A09F908F900895CF93DF931F921F92CDB782
S11325B0DEB789839A83F091A200FF93F87FF093AA
S11325C0A2008091A62C8F5F8093A62C8091482C2A
S11325D09091492C892B69F489819A818093482CA4
S11325E09093492C8091A62C8130C9F40E94CB1879
S11325F016C08091AC2C882391F48091482C909142
S1132600492CFC01228D89819A81FC01828D8217DB
S113261030F089819A818093482C9093492C809141
S1132620B02C8F5F8093B02C2091B02C89819A813B
S1132630FC0125A389819A81FC01928D8091AB2CA8
S1132640891730F489819A81FC01828D8093AB2CA7
S113265089819A81AC014E5F5F4F89819A81FC0127
S1132660828D282F30E06BE0629FC001639F900D44
S11326701124865B934DBA010E94B707FF91F09332
S1132680A2008091AC2C882371F08091482C909109
S1132690492CFC01228D89819A81FC01828D2817A5
S11326A010F40E94010B00000F900F90DF91CF9166
S11326B00895CF93DF93CDB7DEB72597CDBFDEBFA7
S11326C06A837B838C839D8319828A819B81AC81FD
S11326D0BD81892B8A2B8B2B71F00E94D3138A81A5
S11326E09B81AC81BD8140E0BC01CD010E94341AC4
S11326F00E94E01389838981882311F40E94010BCD
S113270000002596CDBFDEBFDF91CF910895EF92F3
S1132710FF920F93CF93DF931F92CDB7DEB70F2EA7
S1132720F5EBEF2EFCE2FF2EF02D00E020E030E090
S113273048EC50E060E070E28AEB98E10E947D1181
S113274089838981813019F40E94D51A898389810A
S1132750813009F580EA90E020EA30E0F901228135
S1132760287FFC0122838FEF9FEFDC018093B12C43
S11327709093B22CA093B32CB093B42C81E08093AB
S1132780AC2C1092A72C1092A82C1092A92C109269
S1132790AA2C0E94C90A00000F90DF91CF910F91DB
S11327A0FF90EF900895CF93DF93CDB7DEB780917C
S11327B0B72C8F5F8093B72C0000DF91CF910895E1
S11327C0CF93DF9300D01F92CDB7DEB719821A8260
S11327D01B82F091A200FF93F87FF093A2008091F6
S11327E0B72C81508093B72C8091B72C882309F0A3
S11327F074C08091A62C882309F46FC046C08091D0
S1132800972C9091982CFC018085918589839A83DB
S113281089819A810E960E94830889819A81029601
S11328200E94830889819A81FC01928D8091AB2C4E
S1132830891730F489819A81FC01828D8093AB2CB5
S113284089819A81AC014E5F5F4F89819A81FC0135
S1132850828D282F30E06BE0629FC001639F900D52
S11328601124865B934DBA010E94B70789819A812E
S1132870FC01228D8091482C9091492CFC01828D81
S1132880281718F081E08093AE2C8091902C882337
S113289009F0B5CF89819A81892B11F00E940E1914
S11328A08091AD2C8C838C81882379F00E949E14B6
S11328B0882319F081E08093AE2C8C8181508C8325
S11328C08C81882399F71092AD2C8091AE2C8823AB
S11328D021F081E08B830E94010BFF91F093A20011
S11328E08B812496CDBFDEBFDF91CF910895CF9326
S11328F0DF9300D01F92CDB7DEB7F091A200FF9313
S1132900F87FF093A2008091A72C9091A82CA0911D
S1132910A92CB091AA2C89839A83AB83BC83FF91A1
S1132920F093A20089819A81AB81BC81BC01CD0165
S11329302496CDBFDEBFDF91CF910895CF93DF936F
S1132940CDB7DEB72D97CDBFDEBF19828091B72CEE
S1132950882309F0F1C08091A72C9091A82CA09114
S1132960A92CB091AA2C0196A11DB11D8A839B8329
S1132970AC83BD838A819B81AC81BD818093A72C6C
S11329809093A82CA093A92CB093AA2C8A819B8104
S1132990AC81BD81892B8A2B8B2BD9F480918C2C13
S11329A090918D2C8E839F8380918E2C90918F2C6F
S11329B080938C2C90938D2C8E819F8180938E2C70
S11329C090938F2C8091AF2C8F5F8093AF2C0E94BB
S11329D00E198091B12C9091B22CA091B32CB0918E
S11329E0B42C2A813B814C815D81281739074A0721
S11329F05B0708F48AC080918C2C90918D2CFC018B
S1132A008081882361F48FEF9FEFDC018093B12CE8
S1132A109093B22CA093B32CB093B42C76C0809135
S1132A208C2C90918D2CFC0187819085FC018085F4
S1132A3091858887998788859985FC01828193810E
S1132A40A481B5818A879B87AC87BD872A813B8116
S1132A504C815D818A859B85AC85BD8528173907A6
S1132A604A075B0768F48A859B85AC85BD8580939E
S1132A70B12C9093B22CA093B32CB093B42C45C03A
S1132A808885998502960E94830888859985FC012A
S1132A90808D918D892B29F0888599850E960E94C9
S1132AA0830888859985FC01928D8091AB2C8917C8
S1132AB030F488859985FC01828D8093AB2C8885C0
S1132AC09985AC014E5F5F4F88859985FC01828DA5
S1132AD0282F30E06BE0629FC001639F900D1124AA
S1132AE0865B934DBA010E94B70788859985FC01DE
S1132AF0228D8091482C9091492CFC01828D2817BD
S1132B0008F479CF81E0898376CF8091482C909125
S1132B10492CFC01828D282F30E04BE0429FC001FC
S1132B20439F900D1124865B934DFC01808182307C
S1132B3040F081E0898305C08091AD2C8F5F809344
S1132B40AD2C8091AE2C882311F081E0898389819A
S1132B502D96CDBFDEBFDF91CF910895CF93DF9344
S1132B60CDB7DEB72997CDBFDEBF8091B72C8823C0
S1132B7021F081E08093AE2CBAC01092AE2C8091EB
S1132B80482C9091492CFC01838D948D8A839B83DE
S1132B9085EA95EADC018C839D83AE83BF838A81B9
S1132BA09B81FC0120813181428153818C819D81F3
S1132BB0AE81BF81281739074A075B0799F58A81D7
S1132BC09B810496FC0120813181428153818C8157
S1132BD09D81AE81BF81281739074A075B0711F52C
S1132BE08A819B810896FC01208131814281538135
S1132BF08C819D81AE81BF81281739074A075B0705
S1132C0089F48A819B810C96FC0120813181428167
S1132C1053818C819D81AE81BF81281739074A0772
S1132C205B0771F08091482C9091492C9C01235EA4
S1132C303F4F8091482C9091492CB9010E949103F7
S1132C408091AB2C898303C08981815089838981D8
S1132C50282F30E04BE0429FC001439F900D112488
S1132C60865B934DFC018081882371F38981282F31
S1132C7030E04BE0429FC001439F900D1124865BDE
S1132C80934D8887998788859985FC0181819281F4
S1132C90FC012481358188859985FC012183328357
S1132CA088859985FC0121813281888599850396DF
S1132CB02817390769F488859985FC0181819281F7
S1132CC0FC012481358188859985FC012183328327
S1132CD088859985FC0181819281FC01808591859B
S1132CE08093482C9093492C89818093AB2C0000CD
S1132CF02996CDBFDEBFDF91CF910895CF93DF93A7
S1132D0000D000D0CDB7DEB789839A834B835C8330
S1132D106D837E838091482C9091492C9C01225F85
S1132D203F4F89819A81B9010E9402088B819C815D
S1132D30AD81BE8141E0BC01CD010E94341A000086
S1132D402696CDBFDEBFDF91CF9108950F931F93D9
S1132D50CF93DF93CDB7DEB72A97CDBFDEBF89838C
S1132D609A834B835C836D837E830F8318872987C3
S1132D703A872091482C3091492C8B819C81AD81DC
S1132D80BE81B068F90186879787A08BB18B80914B
S1132D90482C9091492C9C01225F3F4F89819A8154
S1132DA0B9010E94B7078F819885A985BA8541E04A
S1132DB0BC01CD010E94341A00002A96CDBFDEBFAB
S1132DC0DF91CF911F910F910895CF93DF93CDB7EA
S1132DD0DEB72797CDBFDEBF89839A834B835C839D
S1132DE06D837E832F838091482C9091492C9C0184
S1132DF0225F3F4F89819A81B9010E94B7078F8171
S1132E00882339F08FEF9FEFDC018B839C83AD83A4
S1132E10BE838B819C81AD81BE814F81BC01CD017C
S1132E200E94341A00002796CDBFDEBFDF91CF91F8
S1132E300895CF93DF93CDB7DEB72597CDBFDEBF1F
S1132E408C839D838C819D81FC0187819085FC010D
S1132E50808591858A839B838A819B810E960E94BB
S1132E6083088091B72C882351F58A819B8102962F
S1132E700E9483088A819B81FC01928D8091AB2CF6
S1132E80891730F48A819B81FC01828D8093AB2C5D
S1132E908A819B81AC014E5F5F4F8A819B81FC01DB
S1132EA0828D282F30E06BE0629FC001639F900DFC
S1132EB01124865B934DBA010E94B70708C08A812A
S1132EC09B810E96BC0180E99CE20E94B7078A812F
S1132ED09B81FC01228D8091482C9091492CFC010E
S1132EE0828D821730F481E0898381E08093AE2C57
S1132EF001C0198289812596CDBFDEBFDF91CF91B4
S1132F000895CF93DF93CDB7DEB72897CDBFDEBF4B
S1132F108B839C834D835E836F8378878D819E81B1
S1132F20AF81B885B0682B813C81F901808391839E
S1132F30A283B3838B819C81FC01808591858983E5
S1132F409A838B819C810E94830889819A8102964D
S1132F500E94830889819A81FC01928D8091AB2C17
S1132F60891730F489819A81FC01828D8093AB2C7E
S1132F7089819A81AC014E5F5F4F89819A81FC01FE
S1132F80828D282F30E06BE0629FC001639F900D1B
S1132F901124865B934DBA010E94B70789819A81F7
S1132FA0FC01228D8091482C9091492CFC01828D4A
S1132FB0821718F481E08093AE2C00002896CDBFD0
S1132FC0DEBFDF91CF910895CF93DF931F921F92BD
S1132FD0CDB7DEB789839A832091AF2C89819A81FA
S1132FE0FC0120838091A72C9091A82CA091A92C5E
S1132FF0B091AA2C29813A81F90181839283A38318
S1133000B48300000F900F90DF91CF910895EF9259
S1133010FF920F931F93CF93DF93CDB7DEB72D9716
S1133020CDBFDEBF8A879B876C877D87F091A20026
S1133030FF93F87FF093A2008091A72C9091A82C85
S1133040A091A92CB091AA2C8A839B83AC83BD83C5
S11330508A859B85FC0181819281A381B4812A8127
S11330603B814C815D8179018A01E81AF90A0A0BD6
S11330701B0BD801C7018E839F83A887B9878C85D2
S11330809D85FC0180819181A281B3818F3F9F4FF7
S1133090AF4FBF4F11F4198254C08A859B85FC0140
S11330A090818091AF2C981799F08A859B85FC01BB
S11330B021813281438154818A819B81AC81BD818C
S11330C082179307A407B50718F081E0898339C0F4
S11330D08C859D85FC0120813181428153818E81C3
S11330E09F81A885B98582179307A407B50700F5C2
S11330F08C859D85FC0120813181428153818E81A3
S11331009F81A885B98579018A01E81AF90A0A0B11
S11331101B0BD801C7012C853D85F9018083918360
S1133120A283B3838A859B850E94E417198209C010
S11331308C859D85FC01108211821282138281E0AC
S11331408983FF91F093A20089812D96CDBFDEBFC4
S1133150DF91CF911F910F91FF90EF900895CF933E
S1133160DF93CDB7DEB781E08093AE2C0000DF9112
S1133170CF910895CF93DF931F921F92CDB7DEB7FF
S113318089839A830E94061980914A2C8230D0F355
S11331900E94010BF7CFCF93DF931F92CDB7DEB719
S11331A0198210C08981282F30E04BE0429FC00172
S11331B0439F900D1124865B934D0E946A07898179
S11331C08F5F89838981843068F386E79CE20E945B
S11331D06A0781E89CE20E946A0780E99CE20E94F7
S11331E06A078BE99CE20E946A0786E79CE2809367
S11331F08C2C90938D2C81E89CE280938E2C909360
S11332008F2C00000F90DF91CF910895CF93DF931F
S1133210CDB7DEB70000DF91CF910895CF93DF9350
S11332201F921F92CDB7DEB780918C2C90918D2C7C
S1133230FC018081882361F48FEF9FEFDC01809390
S1133240B12C9093B22CA093B32CB093B42C1BC08C
S113325080918C2C90918D2CFC0187819085FC01B0
S11332608085918589839A8389819A81FC018281F1
S11332709381A481B5818093B12C9093B22CA093B7
S1133280B32CB093B42C00000F900F90DF91CF912A
S11332900895CF93DF931F92CDB7DEB78091AC2C06
S11332A0882319F481E0898308C08091B72C88238E
S11332B019F482E0898301C0198289810F90DF911A
S11332C0CF910895EF92FF920F931F93CF93DF93C3
S11332D0CDB7DEB72597CDBFDEBF8C839D838C81B0
S11332E09D818A839B8319828C819D81892B09F41A
S11332F06AC08A819B81FC0180A52FEF280F8A81F7
S11333009B81FC0120A78A819B81FC01228D8A81FB
S11333109B81FC0187A1281709F455C08A819B81F0
S1133320FC0180A5882309F04EC08A819B81029606
S11333300E9483088A819B81FC0127A18A819B8149
S1133340FC01228F8A819B81FC01828D882F90E071
S1133350A0E0B0E024E030E040E050E079018A01F0
S1133360E81AF90A0A0B1B0BD801C7012A813B8111
S1133370F90186879787A08BB18B8A819B81FC0199
S1133380928D8091AB2C891730F48A819B81FC014A
S1133390828D8093AB2C8A819B81AC014E5F5F4F01
S11333A08A819B81FC01828D282F30E06BE0629F33
S11333B0C001639F900D1124865B934DBA010E9456
S11333C0B70781E0898389812596CDBFDEBFDF9170
S11333D0CF911F910F91FF90EF900895EF92FF927C
S11333E00F931F93CF93DF9300D01F92CDB7DEB717
S11333F08091482C9091492CFC0186859785A08961
S1133400B18989839A83AB83BC836091482C709182
S1133410492C8091482C9091492CFC01828D882F55
S113342090E0A0E0B0E024E030E040E050E079013A
S11334308A01E81AF90A0A0B1B0BD801C701FB0120
S113344086879787A08BB18B89819A81AB81BC8158
S1133450BC01CD012496CDBFDEBFDF91CF911F917A
S11334600F91FF90EF900895CF93DF93CDB7DEB720
S11334702D97CDBFDEBF69877A878B879C874D8761
S11334808091A72C9091A82CA091A92CB091AA2C42
S113349089839A83AB83BC838091482C9091492C77
S11334A002960E94830889859A85AB85BC858F3FE7
S11334B09F4FAF4FBF4F71F48D85882359F0809192
S11334C0482C9091492C0296BC018BE99CE20E9405
S11334D0B70764C029813A814B815C8189859A85CB
S11334E0AB85BC85820F931FA41FB51F8D839E835C
S11334F0AF83B8872091482C3091492C8D819E81CF
S1133500AF81B885F90182839383A483B5832D8128
S11335103E814F81588589819A81AB81BC8128176E
S113352039074A075B0778F48091482C9091492C1D
S11335309C012E5F3F4F80918E2C90918F2CB9016E
S11335400E9402082BC08091482C9091492C9C0128
S11335502E5F3F4F80918C2C90918D2CB9010E944D
S113356002088091B12C9091B22CA091B32CB0910F
S1133570B42C2D813E814F815885281739074A077D
S11335805B0760F48D819E81AF81B8858093B12CF7
S11335909093B22CA093B32CB093B42C00002D962E
S11335A0CDBFDEBFDF91CF910895EF92FF920F93CD
S11335B0CF93DF931F92CDB7DEB719820E94661FA7
S11335C08091D22C9091D32C892B91F00F2EF4ED75
S11335D0EF2EFCE2FF2EF02D03E020E030E048EC7B
S11335E050E065E070E28BEE9BE10E947D118983DF
S11335F089810F90DF91CF910F91FF90EF90089503
S1133600CF92DF92EF92FF920F931F93CF93DF93AA
S1133610CDB7DEB76797CDBFDEBF8B879C876D873D
S11336202E873F87488B598B0A8B1B8BCC8ADD8A6C
S1133630EE8AFF8A19828091D22C9091D32C892B07
S113364009F444C08D858A838E859F85A889B989AC
S11336508B839C83AD83BE838B859C858F83988766
S11336608D85863034F50E944919823099F4E091B1
S1133670D22CF091D32C8C899D89AE89BF89BE014F
S11336806E5F7F4F00E09C01AD01CF010E946C0D85
S113369089831CC08091D22C9091D32CBE016E5F83
S11336A07F4F00E020E030E0A9010E946C0D898387
S11336B00DC08091D22C9091D32C4A895B89BE0194
S11336C06E5F7F4F20E00E942E0E8983898167966A
S11336D0CDBFDEBFDF91CF911F910F91FF90EF908F
S11336E0DF90CF900895CF92DF92EF92FF920F93E5
S11336F01F93CF93DF93CDB7DEB72B97CDBFDEBF3C
S11337006C837D838E839F83288739874A875B8771
S11337108091CE2C9091CF2CFC0187819085FC0167
S11337208085918589839A8389819A8102960E94F2
S1133730830889819A81FC0182898130B1F589816C
S11337409A81FC0126853785408951898C819D8128
S1133750AE81BF81820F931FA41FB51FEC80FD8033
S11337600E811F81288539854A855B85E981FA8127
S11337706701780189019A01AC01BD01CF010E9462
S1133780091D882391F08C819D81AE81BF81E981DF
S1133790FA81C12CD12C760100E010E09C01AD012E
S11337A060E0CF010E94001B8B8389819A81FC0118
S11337B02589368989819A81F901199500002B960A
S11337C0CDBFDEBFDF91CF911F910F91FF90EF909E
S11337D0DF90CF900895CF93DF93CDB7DEB72797CF
S11337E0CDBFDEBF8E839F83CE0105960E94861CCB
S11337F0DC01CB0189839A83AB83BC832D818981CE
S11338009A81AB81BC81422FBC01CD010E940B1C6B
S11338100E94A21DE9CFEF92FF920F931F93CF93C3
S1133820DF93CDB7DEB72A97CDBFDEBF6E837F832C
S1133830888799874A870E94D313CE0105960E94F0
S1133840C41CDC01CB0189839A83AB83BC838D8147
S1133850882309F04EC08A858823E1F42E813F81B4
S11338604885598589819A81AB81BC8182179307E8
S1133870A407B50778F00E94E01329813A814B81AF
S11338805C818E819F81A885B985BC01CD010E9490
S1133890731B31C08A85882359F08091D02C909174
S11338A0D12CFC01908181E0992309F080E08A8782
S11338B02E813F814885598589819A81AB81BC815C
S11338C079018A01E81AF90A0A0B1B0BD801C7010E
S11338D0E091D22CF091D32C2A85AC01BD01CF010B
S11338E00E942F110E94E013882329F40E94010BE7
S11338F002C00E94E01300002A96CDBFDEBFDF9114
S1133900CF911F910F91FF90EF900895CF93DF9384
S113391000D000D0CDB7DEB78D839E838091CE2CAE
S11339209091CF2CFC01908181E0992309F080E0F3
S1133930282F8D819E81FC0120838D819E81FC0135
S11339408081882389F48091CE2C9091CF2CFC0126
S113395087819085FC0180819181A281B3818983D3
S11339609A83AB83BC8304C019821A821B821C8293
S113397089819A81AB81BC81BC01CD012696CDBFE2
S1133980DEBFDF91CF910895CF93DF9300D000D0B5
S1133990CDB7DEB78D839E830E947714DC01CB0103
S11339A089839A83AB83BC838091D62C9091D72C46
S11339B0A091D82CB091D92C29813A814B815C817A
S11339C0281739074A075B0740F40E94AC1E8D8113
S11339D09E8121E0FC01208304C08D819E81FC0135
S11339E0108289819A81AB81BC818093D62C90937B
S11339F0D72CA093D82CB093D92C89819A81AB81F0
S1133A00BC81BC01CD012696CDBFDEBFDF91CF9135
S1133A100895CF92DF92EF92FF920F931F93CF936B
S1133A20DF93CDB7DEB72F97CDBFDEBF8A839B83ED
S1133A304C835D836E837F83088719872A873B873E
S1133A40CC86DD86EE86FF8619822A813B818C81B5
S1133A509D81AE81BF81F90182839383A483B58361
S1133A608A819B812A813B81FC01228733872C81B7
S1133A703D814E815F8188859985AA85BB858217A2
S1133A809307A407B50740F1288539854A855B85E6
S1133A908C859D85AE85BF85281B390B4A0B5B0B36
S1133AA08A819B81FC0186859785A089B189281725
S1133AB039074A075B0718F081E0898336C08A8199
S1133AC09B819C012E5F3F4F8091D02C9091D12CF3
S1133AD0B9010E94020829C0288539854A855B8579
S1133AE08C859D85AE85BF85281739074A075B07F6
S1133AF080F42C813D814E815F818C859D85AE85CE
S1133B00BF85281739074A075B0718F081E08983C6
S1133B100CC08A819B819C012E5F3F4F8091CE2CEB
S1133B209091CF2CB9010E94020889812F96CDBFB4
S1133B30DEBFDF91CF911F910F91FF90EF90DF9047
S1133B40CF900895CF92DF92EF92FF920F931F933D
S1133B50CF93DF93CDB7DEB76597CDBFDEBFE0C0AF
S1133B608A858823FCF4CE010A96019689839A8378
S1133B7089819A81FC012081318189819A81FC01AA
S1133B8084819581A681B78149815A81FA01028095
S1133B90F381E02DEC8BFD8BAC01BD018C899D89FB
S1133BA0F90119958A8588230CF4BAC08F85988900
S1133BB08B839C838B819C81FC0184859585892BD7
S1133BC029F08B819C8102960E948308CE01439642
S1133BD00E94C41CDC01CB018D839E83AF83B88714
S1133BE08A85082E000C990B092E000CAA0BBB0B1E
S1133BF040E050E029E030E0841B950B281739079A
S1133C0008F48DC0FC018827E250FF4F8F4F0C94BD
S1133C10332EEB84FC840D851E852B853C854D85D8
S1133C205E858B819C81FC0186859785A089B189FD
S1133C30820F931FA41FB51F2D813E814F8158858C
S1133C40EB81FC816701780189019A01AC01BD0116
S1133C50CF010E94091D882309F462C08B819C81D5
S1133C60FC01258936898B819C81F90119958B8109
S1133C709C81FC018289813009F052C02B853C85EE
S1133C804D855E858B819C81FC0186859785A08905
S1133C90B189820F931FA41FB51FEB81FC81C12C36
S1133CA0D12C760100E010E09C01AD0160E0CF0171
S1133CB00E94001B898734C08B859C85AD85BE8599
S1133CC02B813C81F90186879787A08BB18B8B81EF
S1133CD09C81FC0126853785408951898D819E818F
S1133CE0AF81B885820F931FA41FB51FED80FE809E
S1133CF00F8118852D813E814F815885EB81FC8190
S1133D006701780189019A01AC01BD01CF010E94CC
S1133D10091D06C08B819C810E945C0701C00000C4
S1133D208091D22C9091D32CBE01665F7F4F20E00E
S1133D3030E0A9010E948E0E882309F011CF000003
S1133D406596CDBFDEBFDF91CF911F910F91FF909C
S1133D50EF90DF90CF900895CF92DF92EF92FF9291
S1133D600F931F93CF93DF93CDB7DEB72D97CDBFBE
S1133D70DEBF82C08091CE2C9091CF2CFC01878134
S1133D809085FC0180819181A281B38189839A838A
S1133D90AB83BC838091CE2C9091CF2CFC01878186
S1133DA09085FC01808591858D839E838D819E8184
S1133DB002960E9483088D819E81FC0125893689A3
S1133DC08D819E81F90119958D819E81FC018289E5
S1133DD0813009F051C08D819E81FC012685378593
S1133DE04089518989819A81AB81BC81820F931F5B
S1133DF0A41FB51F8F839887A987BA872F81388519
S1133E0049855A8589819A81AB81BC818217930740
S1133E10A407B507F8F42D813E818F819885A98583
S1133E20BA85F90182839383A483B5838D819E81AE
S1133E302D813E81FC01228733878D819E819C01E7
S1133E402E5F3F4F8091CE2C9091CF2CB9010E94D0
S1133E50020812C089819A81AB81BC81ED81FE8107
S1133E60C12CD12C760100E010E09C01AD0160E092
S1133E70CF010E94001B8B878091CE2C9091CF2C78
S1133E80FC018081882309F075CF8091CE2C90911C
S1133E90CF2C8C879D878091D02C9091D12C8093AE
S1133EA0CE2C9093CF2C8C859D858093D02C909391
S1133EB0D12C00002D96CDBFDEBFDF91CF911F9195
S1133EC00F91FF90EF90DF90CF900895CF93DF9301
S1133ED0CDB7DEB7F091A200FF93F87FF093A20074
S1133EE08091D22C9091D32C892BE9F488EB9CE21D
S1133EF00E946A0783EC9CE20E946A0788EB9CE2BA
S1133F008093CE2C9093CF2C83EC9CE28093D02C86
S1133F109093D12C40E069E085E00E94E70C809307
S1133F20D22C9093D32CFF91F093A2000000DF9148
S1133F30CF9108950F931F93CF93DF93CDB7DEB73F
S1133F406497CDBFDEBF8B879C876D877E872F8765
S1133F50388B498B5A8B0B8B1C8B8EEF8A838B850A
S1133F609C858B839C838D859E858D839E838F8585
S1133F709889A989BA898F839887A987BA878091F4
S1133F80D22C9091D32C4B895C89BE016E5F7F4FFC
S1133F9020E00E942E0E898389816496CDBFDEBF06
S1133FA0DF91CF911F910F910895CF93DF93CDB7F8
S1133FB0DEB780E590E020E530E0F9012081216062
S1133FC0FC01208380E590E0FC018181882F90E052
S1133FD081709927892BB1F380E00E941B038EE145
S1133FE00E94E40260E080E00E94040343E060E099
S1133FF080E40E94AF0280E590E020E530E0F90122
S113400020812860FC01208380E590E0FC0181810F
S1134010882F90E088709927892BB1F364E080ECB5
S11340200E94CC0280E590E020E530E0F901208197
S11340302061FC01208360E080E00E94040380E5AD
S113404090E0FC018181882F90E080719927892B71
S1134050B1F384E00E941B0387E00E94E4020000A5
S1134060DF91CF910895EF92FF920F93CF93DF9357
S11340701F92CDB7DEB70E94A22B89830E94D51F61
S11340800E94EC230E94DB0380930D2D90930E2D50
S1134090E12CF12C01E020E030E042ED50E06DE055
S11340A070E289E392E20E947D11E12CF12C02E09E
S11340B020E030E048EC50E066E170E287EB91E20A
S11340C00E947D11E12CF12C01E020E030E04AEF68
S11340D050E06FE170E28DE591E20E947D11E12CE8
S11340E0F12C01E020E030E040E951E06AE270E2C6
S11340F087E890E20E947D110E94871380E090E09F
S11341000F90DF91CF910F91FF90EF900895CF938F
S1134110DF9300D01F92CDB7DEB78B839C831982C7
S11341201A8289819A818130910509F474C08230A0
S113413091051CF4892B49F073C08230910509F470
S11341406CC0039709F46BC06BC00E943726809142
S1134150DA2C482F50E08091DB2C282F30E080911E
S1134160DC2C882F90E0652F6F934F93432F4F9350
S11341702F93292F2F938F9381E390E2892F8F938D
S113418081E390E28F931F921F921F921F920E94CD
S113419049268DB79EB70C96CDBFDEBF8091DD2C2E
S11341A0482F50E08091DE2C282F30E08091DF2CC6
S11341B0882F90E0652F6F934F93432F4F932F9346
S11341C0292F2F938F9382E490E2892F8F9382E497
S11341D090E28F931F921F921F9281E08F930E940F
S11341E049268DB79EB70C96CDBFDEBF83E590E21E
S11341F0892F8F9383E590E28F931F921F921F92D2
S113420083E08F930E9449260F900F900F900F9098
S11342100F900F9005C0000003C0000001C0000013
S113422080910D2D90910E2D40E050E0BA010E9436
S11342303605DC01CB0182709927AA27BB27892B7D
S11342408A2B8B2B99F10E9437268091DA2C482FE8
S113425050E08091DB2C282F30E08091DC2C882FDB
S113426090E0652F6F934F93432F4F932F93292FF4
S11342702F938F9387E690E2892F8F9387E690E2BE
S11342808F931F921F921F921F920E9449268DB7EF
S11342909EB70C96CDBFDEBF80910D2D90910E2D53
S11342A042E050E060E070E00E94360568EC70E0A7
S11342B080E090E00E94591334CFCF93DF931F9294
S11342C01F92CDB7DEB789839A830E944C0168EBB5
S11342D07BE080E090E00E9459130E94680180E036
S11342E00E945A02813051F480910D2D90910E2D2F
S11342F042E050E060E070E00E94810581E00E94AD
S11343005A0282E00E945A0283E00E945A0280E02C
S11343100E945A0281E00E945A0282E00E945A02DC
S113432083E00E945A026AE070E080E090E00E941C
S11343305913D3CFCF93DF93CDB7DEB780E099E0A5
S113434027E0FC01208380E099E0FC01118280E0F9
S113435099E023E0FC01268380E099E021E13AE73B
S1134360FC0126A337A30000DF91CF910895CF92DB
S1134370DF92EF92FF920F93CF93DF931F921F92DE
S1134380CDB7DEB789839A830E949A2180910D2D3F
S113439090910E2DCC24CA94DC2C760100E021E00F
S11343A041E050E060E070E00E94FE038091DA2C6E
S11343B08F5F8093DA2C8091DA2C8C3339F410924D
S11343C0DA2C8091DB2C8F5F8093DB2C8091DB2CAB
S11343D08C3339F41092DB2C8091DC2C8F5F80932A
S11343E0DC2C8091DC2C883189F61092DC2CCECF29
S11343F01F920F9200903F000F92112400903B00F7
S11344000F922F933F934F935F936F937F938F9369
S11344109F93AF93BF93EF93FF93CF93DF931F9239
S1134420CDB7DEB7198280910D2D90910E2D9E018E
S11344302F5F3F4F41E050E060E070E00E94EE06E5
S113444000000F90DF91CF91FF91EF91BF91AF9159
S11344509F918F917F916F915F914F913F912F9198
S11344600F9000923B000F9000923F000F901F901E
S11344701895CF93DF931F921F92CDB7DEB7898330
S11344809A8380EA96E021E0FC01218380EA96E0A9
S113449021E0FC01248380EA96E021E0FC012783EB
S11344A064E670E080E090E00E945913F4CF1F921C
S11344B00F9200903F000F92112400903B000F9246
S11344C02F933F934F935F936F937F938F939F9318
S11344D0AF93BF93EF93FF93CF93DF931F92CDB727
S11344E0DEB719828091112D9091122D9E012F5FBC
S11344F03F4F41E050E060E070E00E94EE0660E073
S113450080E09BE00E943D0380E09BE0FC0116827A
S113451000000F90DF91CF91FF91EF91BF91AF9188
S11345209F918F917F916F915F914F913F912F91C7
S11345300F9000923B000F9000923F000F901F904D
S11345401895CF92DF92EF92FF920F93CF93DF9360
S113455000D01F92CDB7DEB769837A838B839C83A7
S113456089819A81AB81BC810297A105B10540F490
S113457082E090E0A0E0B0E089839A83AB83BC83BF
S113458080E09BE021E0FC01268380E09BE0FC01CD
S113459010A211A260E080E09BE00E94590389818F
S11345A09A81AB81BC818E3F9F4FA105B10598F4E0
S11345B020E03BE089819A81AB81BC81B695A795C7
S11345C097958795F90186A397A365E080E09BE022
S11345D00E943D031FC089819A81AB81BC818034D4
S11345E09244AF40B105B0F420E03BE089819A8168
S11345F0AB81BC81689414F8B695A7959795879577
S11346001694D1F7F90186A397A367E080E09BE0B5
S11346100E943D038091112D9091122D0F2EF4EFE5
S1134620CF2EDD24D394E12CF12CF02D00E021E0F9
S113463041E050E060E070E00E94FE030000249638
S1134640CDBFDEBFDF91CF910F91FF90EF90DF9050
S1134650CF900895CF93DF931F92CDB7DEB78983B0
S113466089818F70898389818295807F898380E0A5
S113467096E020E036E0F901348129812F6023237C
S1134680FC01248380E096E020E036E0F9013481E7
S11346902981232BFC01248300000F90DF91CF910B
S11346A00895CF93DF931F92CDB7DEB789838981B5
S11346B0882331F080E696E021E0FC01258305C0E3
S11346C080E696E021E0FC01268300000F90DF9154
S11346D0CF910895CF93DF931F92CDB7DEB789832F
S11346E08981882331F080E696E022E0FC0125836D
S11346F005C080E696E022E0FC01268300000F90CE
S1134700DF91CF910895CF93DF931F92CDB7DEB79A
S113471089838981882331F080E696E024E0FC01D6
S1134720258305C080E696E024E0FC012683000092
S11347300F90DF91CF910895CF93DF93CDB7DEB77C
S113474081E00E94832361E070E080E090E00E94B9
S1134750A12280E00E9483230000DF91CF9108957D
S1134760CF93DF931F92CDB7DEB78983898182957A
S11347708F700E942A2380E00E94512380E00E94CF
S11347806A230E949C2389818F700E942A230E949D
S11347909C2300000F90DF91CF910895CF93DF9376
S11347A01F92CDB7DEB78983898182958F700E946D
S11347B02A2381E00E94512380E00E946A230E9400
S11347C09C2389818F700E942A230E949C230000CD
S11347D00F90DF91CF910895EF92FF920F93CF93B3
S11347E0DF93CDB7DEB780E096E020E1FC012183C2
S11347F080E096E020E2FC01218380E096E020E462
S1134800FC01218380E096E020E8FC01218380E61E
S113481096E021E0FC01218380E696E022E0FC01A1
S1134820218380E696E024E0FC01218380E096E089
S113483020E036E0F90124812F70FC01248380E616
S113484096E020E636E0F9012481287FFC012483E8
S113485040E066E188E00E94E70C80930F2D90937E
S1134860102D0E94DB038093112D9093122DE12CC7
S1134870F12C01E020E030E04EE551E066E770E223
S11348808AEE94E20E947D110000DF91CF910F9196
S1134890FF90EF900895CF93DF9300D01F92CDB790
S11348A0DEB789839A836B837C8389819A81813083
S11348B0910589F0823091051CF4892B39F01AC0D6
S11348C08230910569F0039781F014C08B81805880
S11348D00E94B0230FC08B8180540E94B0230AC071
S11348E08B818C560E94B02305C08B818C520E9410
S11348F0B023000067E270E080E090E00E94A12213
S113490000002496CDBFDEBFDF91CF910895CF93F1
S1134910DF931F92CDB7DEB7898389810E94CE23AE
S11349206BE270E080E090E00E94A12200000F9012
S1134930DF91CF910895CF93DF9300D01F92CDB72D
S1134940DEB78B839C8319821A8219C089819A816C
S11349502B813C81820F931FFC0180818823A1F06D
S113496089819A812B813C81820F931FFC01808174
S11349700E94872489819A81019689839A838981F7
S11349809A8144971CF301C0000000002496CDBF17
S1134990DEBFDF91CF910895CF93DF9300D000D095
S11349A0CDB7DEB789839A836B837C834D835E8323
S11349B02B813C8189819A81B9010E944B248D818C
S11349C09E810E949B2400002696CDBFDEBFDF910E
S11349D0CF910895CF93DF93CDB7DEB7C057D109F8
S11349E0CDBFDEBF9E0121593F4FF90180839183E2
S11349F019821A821B821C821D821E8226C01F827B
S1134A0018861AC02D813E8144E1429FC001439F14
S1134A10900D11249E012F5F3F4F280F391F8F8166
S1134A209885820F931F089620E2FC0120838F81D2
S1134A30988501968F8398878F819885449714F37E
S1134A408D819E8101968D839E838D819E810497A5
S1134A50B4F260E47CE980E090E00E94A12283E06B
S1134A600E942A2368E873E180E090E00E94A1227A
S1134A700E949C2360EA70E080E090E00E94A12202
S1134A800E949C2360EA70E080E090E00E94A122F2
S1134A900E949C2360EA70E080E090E00E94A122E2
S1134AA082E00E942A230E949C2388E20E94B02371
S1134AB080E10E94B0238CE00E94B02386E00E9433
S1134AC0B02368EC70E080E090E00E94591380917C
S1134AD0112D9091122D40E050E0BA010E9436054C
S1134AE0DC01CB01892B8A2B8B2B09F496C0809196
S1134AF0112D9091122D42E050E060E070E00E9490
S1134B00360519821A8226C01B821C821AC029818A
S1134B103A8144E1429FC001439F900D11249E01BC
S1134B202F5F3F4F280F391F8B819C81820F931F6A
S1134B30089620E2FC0120838B819C8101968B8363
S1134B409C838B819C81449714F389819A8101967B
S1134B5089839A8389819A810497B4F25EC0809193
S1134B600F2D9091102DBE01675A7F4F2FEF3FEF0D
S1134B70A9010E948E0E882309F44FC019821A825B
S1134B8032C0CE01875A9F4FFC018081482F50E0EC
S1134B90CE01875A9F4FFC018181282F30E0898103
S1134BA09A81820F931FBE01675A7F4F29813A81F0
S1134BB0260F371F2E5F3F4FF901608174E1749F08
S1134BC09001759F300D1124AE014F5F5F4F240F8C
S1134BD0351F820F931F0896FC01608389819A8197
S1134BE0019689839A83CE01875A9F4FFC01818164
S1134BF0282F30E089819A81820F931F44976CF4A7
S1134C009E01275A3F4F89819A81820F931F0296F2
S1134C10FC018081882309F0B4CF80910F2D9091FD
S1134C20102D0E944E0F882309F099CF19821A8201
S1134C3019C09E01275F3F4F49815A8164E1649FF7
S1134C40C001659F900D1124280F391F89819A8115
S1134C50A90160E070E00E94CC2489819A810196C8
S1134C6089839A8389819A8104971CF32ACFCF93ED
S1134C70DF93CDB7DEB78091112D9091122D42E0D4
S1134C8050E060E070E00E9481050000DF91CF9168
S1134C900895CF93DF931F921F92CDB7DEB7CE0155
S1134CA00E9689839A8329813A814C855D856A852C
S1134CB07B85888599850E94632600000F900F905C
S1134CC0DF91CF9108950F93CF93DF93CDB7DEB7E4
S1134CD0EC97CDBFDEBF8DAB9EAB6FAB78AF49AF6A
S1134CE05AAF2BAF3CAF19821A821B821C820BC0B5
S1134CF08B819C818052934DFC0110828B819C811D
S1134D0001968B839C838B819C8144978CF31D82B9
S1134D101E820BC08D819E818C50934DFC011082AC
S1134D208D819E8101968D839E838D819E81449782
S1134D308CF3BEC18D89853209F0A0C189AD9AADCD
S1134D409C012F5F3F4F29AF3AAFFC0180818D8BCF
S1134D508D89882F90E08536910509F446C1863601
S1134D60910554F48336910501F1843691050CF0D4
S1134D7070C0859769F09CC18337910571F18837BC
S1134D80910509F4A8C08636910509F4E6C090C1DE
S1134D9089819A818C50934D25E2FC01208389817D
S1134DA09A81019689839A8383C18BAD9CAD9C01C2
S1134DB02E5F3F4F2BAF3CAFFC01808191818E8BE6
S1134DC089819A818C50934D2E89FC01208389819D
S1134DD09A81019689839A836BC18BAD9CAD9C01AA
S1134DE02E5F3F4F2BAF3CAFFC01808191818F8BB5
S1134DF0988F1F82188617C029813A818F819885E0
S1134E00820F931F2F8138854F89588D240F351FAA
S1134E10F90120818C50934DFC0120838F8198856A
S1134E2001968F8398878F89988D0E944B2E9C01C1
S1134E308F81988582179307F8F28F89988D0E9445
S1134E404B2E9C0189819A81820F931F89839A83B7
S1134E502FC18BAD9CAD9C012E5F3F4F2BAF3CAF60
S1134E60FC0180819181898F9A8F898D9A8D4AE086
S1134E7050E060EE7CE20E94542E19861A8615C01A
S1134E8029813A8189859A85820F931F29853A85DC
S1134E902052334DF90120818C50934DFC01208325
S1134EA089859A85019689879A8780EE9CE20E947B
S1134EB04B2E9C0189859A858217930708F380EE0F
S1134EC09CE20E944B2E9C0189819A81820F931F40
S1134ED089839A83EDC08BAD9CAD9C012E5F3F4FBF
S1134EE02BAF3CAFFC0180819181898F9A8F898D92
S1134EF09A8D40E150E060EE7CE20E94542E1B86C5
S1134F001C8615C029813A818B859C85820F931F4D
S1134F102B853C852052334DF90120818C50934DD3
S1134F20FC0120838B859C8501968B879C8780EE72
S1134F309CE20E944B2E9C018B859C8582179307D3
S1134F4008F380EE9CE20E944B2E9C0189819A8199
S1134F50820F931F89839A83ABC08BAD9CAD9C0158
S1134F602C5F3F4F2BAF3CAFFC0180819181A2812C
S1134F70B3818B8F9C8FAD8FBE8F8B8D9C8DAD8DB0
S1134F80BE8DAC01BD0180EE9CE20E9432291D86DB
S1134F901E8615C029813A818D859E85820F931FB7
S1134FA02D853E852052334DF90120818C50934D3F
S1134FB0FC0120838D859E8501968D879E8780EEDA
S1134FC09CE20E944B2E9C018D859E85821793073F
S1134FD008F380EE9CE20E944B2E9C0189819A8109
S1134FE0820F931F89839A8363C08BAD9CAD9C0110
S1134FF02C5F3F4F2BAF3CAFFC0180819181A2819C
S1135000B3818B8F9C8FAD8FBE8F8B8D9C8DAD8D1F
S1135010BE8DAC01BD0180EE9CE20E94812A1F86F8
S1135020188A15C029813A818F859889820F931F28
S11350302F8538892052334DF90120818C50934DAE
S1135040FC0120838F85988901968F87988B80EE49
S11350509CE20E944B2E9C018F85988982179307AE
S113506008F380EE9CE20E944B2E9C0189819A8178
S1135070820F931F89839A8300001AC089819A81C1
S11350808C50934D2D89FC01208389819A818C5009
S1135090934DFC0180818A3031F489819A818C504E
S11350A0934DFC01108289819A81019689839A83A8
S11350B089AD9AAD9C012F5F3F4F29AF3AAFFC01F8
S11350C080818D8B8D89882309F034CE29813A81A2
S11350D08FA998AD820F931F449754F024E130E0D8
S11350E08FA998ADA901481B590BCA0189839A83DA
S11350F0198A1A8A0EC09E012F5D3F4F89899A89A9
S1135100820F931FFC01108289899A890196898BE9
S11351109A8B89899A89449774F38DA98F8F8FA963
S113512088A31B8A1C8A14C08B899C898C50934D3C
S1135130FC0140819E012F5D3F4F8B899C89820F2A
S1135140931FFC0140838B899C8901968B8B9C8BDC
S11351502B893C8989819A81281739072CF38091FE
S11351600F2D9091102DBE01615E7F4F00E02FEF57
S11351703FEFA9010E946C0D89819A81EC96CDBF05
S1135180DEBFDF91CF910F910895CF93DF93CDB719
S1135190DEB72897CDBFDEBF8F83988719821A8226
S11351A08F819885FC0180819181A281B3818B8359
S11351B09C83AD83BE8315C020E030E040E251E41F
S11351C06B817C818D819E810E94672CDC01CB01E7
S11351D08B839C83AD83BE8389819A810196898365
S11351E09A8320E030E040E85FE36B817C818D812D
S11351F09E810E94C12D8823FCF615C020E030E07A
S113520040E251E46B817C818D819E810E94C62D98
S1135210DC01CB018B839C83AD83BE8389819A811E
S1135220019789839A832DEC3CEC4CEC5DE36B8114
S11352307C818D819E810E94622C8823FCF22F81C7
S113524038858B819C81AD81BE81F90180839183F6
S1135250A283B38389819A812896CDBFDEBFDF9173
S1135260CF910895CF92DF92EF92FF92CF93DF9385
S1135270CDB7DEB72E97CDBFDEBF89879A874B8720
S11352805C876D877E8719821A821B821C828B85BC
S11352909C85AD85BE8520E030E0A901BC01CD012F
S11352A00E94622C882359F489859A8520E3FC01A5
S11352B0208389859A850196FC01108218C18B850B
S11352C09C85AD85BE8520E030E0A901BC01CD01FF
S11352D00E94622C88239CF489859A859C012F5F07
S11352E03F4F29873A872DE2FC0120838B859C85DB
S11352F0AD85BE85B0588B879C87AD87BE87CE01B0
S11353000B960E94C52889839A8353C08B859C85FC
S1135310AD85BE8520E030E040E251E4BC01CD0122
S11353200E94C62DDC01CB01BC01CD010E94D92C09
S1135330DC01CB018D839E8389859A859C012F5F37
S11353403F4F29873A872D81205DFC0120838B857F
S11353509C85AD85BE8520E030E040E251E4BC018F
S1135360CD010E94C62DDC01CB016C017D018D8134
S11353709E81092E000CAA0BBB0BBC01CD010E941F
S1135380112DDC01CB019C01AD01C701B6010E94C6
S1135390F52BDC01CB018B879C87AD87BE878B8186
S11353A09C8101968B839C8389819A81019789834F
S11353B09A8389819A81181619060CF4A7CF8B81D8
S11353C09C81892B51F489859A859C012F5F3F4FDD
S11353D029873A8720E3FC01208389859A859C01EB
S11353E02F5F3F4F29873A872EE2FC01208314C0A8
S11353F089859A859C012F5F3F4F29873A8720E34F
S1135400FC01208389819A81019789839A838B8106
S11354109C8101968B839C8389819A8199230CF0CA
S113542058C080918120909182202B813C81281743
S11354303907F4F24EC08B859C85AD85BE8520E08E
S113544030E040E251E4BC01CD010E94C62DDC01F4
S1135450CB01BC01CD010E94D92CDC01CB018F838F
S1135460988789859A859C012F5F3F4F29873A87C2
S11354702F81205DFC0120838B859C85AD85BE85B5
S113548020E030E040E251E4BC01CD010E94C62D91
S1135490DC01CB016C017D018F819885092E000C04
S11354A0AA0BBB0BBC01CD010E94112DDC01CB0169
S11354B09C01AD01C701B6010E94F52BDC01CB01B3
S11354C08B879C87AD87BE878B819C8101968B835C
S11354D09C8380918120909182202B813C8128178C
S11354E039070CF4A8CF89859A85FC0110822E9681
S11354F0CDBFDEBFDF91CF91FF90EF90DF90CF90D3
S11355000895CF92DF92EF92FF92CF93DF93CDB7BE
S1135510DEB72E97CDBFDEBF89879A874B875C871E
S11355206D877E871B821C828B859C85AD85BE859D
S113553020E030E0A901BC01CD010E94622C882347
S113554059F489859A8520E3FC01208389859A850D
S11355500196FC011082ECC08B859C85AD85BE85CF
S113556020E030E0A901BC01CD010E94622C882317
S11355709CF489859A859C012F5F3F4F29873A8740
S11355802DE2FC0120838B859C85AD85BE85B058BA
S11355908B879C87AD87BE87CE010B960E94C5285A
S11355A08B839C838B859C85AD85BE8520E030E014
S11355B040E251E4BC01CD010E94C62DDC01CB01C7
S11355C0BC01CD010E94D92CDC01CB018D839E83CB
S11355D089859A859C012F5F3F4F29873A872D81C2
S11355E0205DFC0120838B859C85AD85BE8520E0F4
S11355F030E040E251E4BC01CD010E94C62DDC0143
S1135600CB016C017D018D819E81092E000CAA0BBA
S1135610BB0BBC01CD010E94112DDC01CB019C010F
S1135620AD01C701B6010E94F52BDC01CB018B87CC
S11356309C87AD87BE878B819C8101978B839C83DC
S113564089859A859C012F5F3F4F29873A872EE2EF
S1135650FC01208319821A824EC08B859C85AD85FE
S1135660BE8520E030E040E251E4BC01CD010E945F
S1135670C62DDC01CB01BC01CD010E94D92CDC017B
S1135680CB018F83988789859A859C012F5F3F4F33
S113569029873A872F81205DFC0120838B859C8597
S11356A0AD85BE8520E030E040E251E4BC01CD018F
S11356B00E94C62DDC01CB016C017D018F81988590
S11356C0092E000CAA0BBB0BBC01CD010E94112DAD
S11356D0DC01CB019C01AD01C701B6010E94F52B91
S11356E0DC01CB018B879C87AD87BE8789819A813A
S11356F0019689839A8380918320909184202981C3
S11357003A81281739070CF4A8CF89859A859C011A
S11357102F5F3F4F29873A8725E6FC01208329859F
S11357203A858B819C814AE050E0B9010E94542E55
S11357302E96CDBFDEBFDF91CF91FF90EF90DF902B
S1135740CF900895CF93DF931F92CDB7DEB782E059
S1135750898388E790E0FC018081882F90E0807243
S11357609927892B41F088E790E020E2FC0120830F
S113577081E0898335C088E790E0FC018081882F2F
S113578090E081709927892B41F088E790E021E02F
S1135790FC01208382E0898323C088E790E0FC0138
S11357A08081882F90E080719927892B41F088E7C8
S11357B090E020E1FC01208383E0898311C088E725
S11357C090E0FC018081882F90E082709927892BDA
S11357D039F088E790E022E0FC01208384E08983AB
S11357E089810F90DF91CF9108955058BB27AA2744
S11357F00E940D2C0C94872D0E94792D38F00E9464
S1135800802D20F039F49F3F19F426F40C94762D62
S11358100EF4E095E7FB0C94702DE92F0E94982D6F
S113582058F3BA17620773078407950720F079F4D1
S1135830A6F50C94BA2D0EF4E0950B2EBA2FA02DDC
S11358400B01B90190010C01CA01A0011124FF2729
S1135850591B99F0593F50F4503E68F11A16F04024
S1135860A22F232F342F4427585FF3CF4695379523
S11358702795A795F0405395C9F77EF41F16BA0BE8
S1135880620B730B840BBAF09150A1F0FF0FBB1F96
S1135890661F771F881FC2F70EC0BA0F621F731FDF
S11358A0841F48F4879577956795B795F7959E3F3C
S11358B008F0B0CF9395880F08F09927EE0F9795CD
S11358C0879508950E944C2D08F481E008950E9464
S11358D07B2C0C94872D0E94802D58F00E94792DEA
S11358E040F029F45F3F29F00C94702D51110C9471
S11358F0BB2D0C94762D0E94982D68F39923B1F357
S1135900552391F3951B550BBB27AA2762177307E1
S1135910840738F09F5F5F4F220F331F441FAA1F75
S1135920A9F335D00E2E3AF0E0E832D09150504031
S1135930E695001CCAF72BD0FE2F29D0660F771FDF
S1135940881FBB1F261737074807AB07B0E809F0C5
S1135950BB0B802DBF01FF2793585F4F3AF09E3F4A
S1135960510578F00C94702D0C94BB2D5F3FE4F33B
S1135970983ED4F3869577956795B795F7959F5F8D
S1135980C9F7880F911D9695879597F90895E1E0D9
S1135990660F771F881FBB1F621773078407BA0738
S11359A020F0621B730B840BBA0BEE1F88F7E09593
S11359B008950E94E02C6894B1110C94BB2D0895B5
S11359C00E94A02D88F09F5798F0B92F9927B751BE
S11359D0B0F0E1F0660F771F881F991F1AF0BA958F
S11359E0C9F714C0B13091F00E94BA2DB1E0089506
S11359F00C94BA2D672F782F8827B85F39F0B93FF8
S1135A00CCF3869577956795B395D9F73EF4909541
S1135A108095709561957F4F8F4F9F4F0895E894BF
S1135A2009C097FB3EF490958095709561957F4FE2
S1135A308F4F9F4F9923A9F0F92F96E9BB27939590
S1135A40F695879577956795B795F111F8CFFAF4A0
S1135A50BB0F11F460FF1BC06F5F7F4F8F4F9F4FD1
S1135A6016C0882311F096E911C0772321F09EE82F
S1135A70872F762F05C0662371F096E8862F70E095
S1135A8060E02AF09A95660F771F881FDAF7880F6F
S1135A909695879597F90895990F0008550FAA0BC5
S1135AA0E0E8FEEF16161706E807F907C0F012162D
S1135AB01306E407F50798F0621B730B840B950B30
S1135AC039F40A2661F0232B242B252B21F4089585
S1135AD00A2609F4A140A6958FEF811D811D089522
S1135AE097F99F6780E870E060E008959FEF80EC8D
S1135AF0089500240A941616170618060906089530
S1135B0000240A9412161306140605060895092E95
S1135B100394000C11F4882352F0BB0F40F4BF2B04
S1135B2011F460FF04C06F5F7F4F8F4F9F4F089544
S1135B3057FD9058440F551F59F05F3F71F047953A
S1135B40880F97FB991F61F09F3F79F0879508951F
S1135B50121613061406551FF2CF4695F1DF08C03E
S1135B60161617061806991FF1CF8695710561055B
S1135B7008940895E894BB2766277727CB0197F903
S1135B8008950E944C2D08F48FEF08950E94D92D9A
S1135B900C94872D0E94792D38F00E94802D20F0DE
S1135BA0952311F00C94702D0C94762D11240C94E3
S1135BB0BB2D0E94982D70F3959FC1F3950F50E073
S1135BC0551F629FF001729FBB27F00DB11D639FAB
S1135BD0AA27F00DB11DAA1F649F6627B00DA11D51
S1135BE0661F829F2227B00DA11D621F739FB00DF7
S1135BF0A11D621F839FA00D611D221F749F332767
S1135C00A00D611D231F849F600D211D822F762FFF
S1135C106A2F11249F5750409AF0F1F088234AF0DC
S1135C20EE0FFF1FBB1F661F771F881F9150504048
S1135C30A9F79E3F510580F00C94702D0C94BB2D58
S1135C405F3FE4F3983ED4F3869577956795B795CF
S1135C50F795E7959F5FC1F7FE2B880F911D9695E9
S1135C60879597F90895EE0FFF1F881F8BBF079044
S1135C70F691E02D1994FB01DC0102C001900D9214
S1135C8041505040D8F70895DC0101C06D93415054
S1135C905040E0F70895FC0101900020E9F7809559
S1135CA090958E0F9F1F08954532510520F4423080
S1135CB010F00C945F2EFB011082CB010895BB27DA
S1135CC04A3031F4992322F4BDE2909581959F4F97
S1135CD00C946B2EBB27FB015527AA27880F991F0D
S1135CE0AA1FA41710F0A41B83955051B9F7A05D07
