:100000000C9422010C944C010C944C010C944C0166
:100010000C944C010C944C010C944C010C944C012C
:100020000C944C010C944C010C944C010C944C011C
:100030000C944C010C944C010C94760A0C944C01D9
:100040000C944C010C944C010C944C010C944C01FC
:100050000C944C010C944C010C944C010C944C01EC
:100060000C944C010C944C010C944C010C944C01DC
:100070000C944C010C944C010C944C010C944C01CC
:100080000C944C010C944C010C944C010C944C01BC
:100090000C944C010C944C010C944C010C944C01AC
:1000A0000C944C010C944C010C944C010C944C019C
:1000B0000C944C010C944C010C944C010C944C018C
:1000C0000C944C010C944C010C944C010C944C017C
:1000D0000C944C010C944C010C944C010C944C016C
:1000E0000C944C010C944C010C944C010C944C015C
:1000F0000C944C010C944C010C944C010C944C014C
:100100000C944C010C944C010C944C010C944C013B
:100110000C944C010C944C010C944C010C944C012B
:100120000C944C010C944C010C944C010C944C011B
:100130000C944C010C941E250C944C010C944C0115
:100140000C944C010C944C010C944C010C944C01FB
:100150000C944C010C944C010C944C010C944C01EB
:100160000C944C010C944C010C944C010C944C01DB
:100170000C944C010C944C010C944C010C944C01CB
:100180000C944C010C944C010C944C010C944C01BB
:100190000C944C010C944C010C944C010C944C01AB
:1001A0000C944C010C944C010C944C010C944C019B
:1001B0000C9482280C944C010C944C010C944C012E
:1001C0000C944C010C944C010C944C010C944C017B
:1001D0000C944C010C944C010C944C010C944C016B
:1001E0000C944C010C944C010C944C010C944C015B
:1001F0000C944C010C944C010C944C01B91FB91F88
:10020000B91F40200C203A20B91FB91F40200C20F4
:100210000C945F250C94FD230C9440200C94143313
:100220000C9454050C949B1D0C940C200C943722B8
:100230000C94152B0C94C7240C943A200C94B91FE1
:100240000C94EC1811241FBECFEFCDBFDFE3DEBF4F
:1002500000E00CBFECEEFDE28AEA90E48193E0302E
:10026000F907E0F3000011E2A0E0B0E2ECE5F3E70B
:1002700000E00BBF02C007900D92AA32B107D9F778
:100280002DE2AAE2B1E201C01D92AC3EB207E1F755
:100290000E94E3210C94AC390C9400000F93CF938F
:1002A000DF9300D000D0CDB7DEB78C839D836E8303
:1002B0008FE390E0FC0180818B83F8948C819D8199
:1002C00089839A838BE390E0FC01108289819A8173
:1002D0002E81FC0108ED04BF20838FE390E02B8189
:1002E000FC01208300002696CDBFDEBFDF91CF91B9
:1002F0000F910895CF93DF9300D0CDB7DEB78983F8
:100300006A834B8380E590E02A81222311F020E26A
:1003100001C020E03981322B2B81232BFC01228369
:1003200000002396CDBFDEBFDF91CF910895CF931C
:10033000DF931F921F92CDB7DEB789836A838A81CC
:100340008F718A8380E590E039812A81232BFC011B
:10035000258300000F900F90DF91CF910895CF93E8
:10036000DF931F921F92CDB7DEB78A8380E590E0BE
:1003700020E530E0F9012081322F2A8120952323C6
:10038000FC01208380E590E0FC0190818A81892333
:10039000898389810F900F90DF91CF910895CF933A
:1003A000DF9300D0CDB7DEB78A836B839A818B81D0
:1003B000892B8983698181E490E00E944E010000CD
:1003C0002396CDBFDEBFDF91CF910895CF93DF930A
:1003D0001F921F92CDB7DEB78A8380E490E0FC01C4
:1003E0008081982F987F8A81892B8983698180E415
:1003F00090E00E944E0180E490E0FC0190818A81AF
:100400008923898389810F900F90DF91CF9108957F
:10041000CF93DF9300D0CDB7DEB789839A836B8308
:1004200089819A81FC018081982F907F8B81892B13
:10043000282F89819A81FC01208300002396CDBF5B
:10044000DEBFDF91CF910895CF93DF9300D0CDB77A
:10045000DEB789839A836B8389819A81FC018181CC
:10046000982F987F8B81892B282F89819A81FC0175
:10047000218300002396CDBFDEBFDF91CF91089589
:10048000CF93DF9300D0CDB7DEB789839A836B8398
:1004900089819A81FC018681982F9C7F8B81892B91
:1004A000282F89819A81FC01268300002396CDBFE5
:1004B000DEBFDF91CF910895CF93DF9300D01F92DD
:1004C000CDB7DEB789839A836B837C838BE20E94EE
:1004D000700200002496CDBFDEBFDF91CF9108955A
:1004E000CF93DF931F921F92CDB7DEB78A838A81A5
:1004F0008B3219F481E089830EC08A818C3219F421
:1005000082E0898308C08A818F3219F483E089836D
:1005100002C084E089830E94930200000F900F9034
:10052000DF91CF910895CF93DF93CDB7DEB7000071
:1005300084E390E028EDFC01208388E790E021E04F
:10054000FC0121830000DF91CF910895CF93DF93C9
:100550001F921F92CDB7DEB780E190E00E94E305C5
:1005600089839A8389819A81892B61F089819A8113
:10057000FC01108211821282138289819A81049671
:100580000E94350689819A810F900F90DF91CF915B
:100590000895CF92DF92EF92FF920F931F93CF9324
:1005A000DF93CDB7DEB76D97CDBFDEBF8A8B9B8B58
:1005B0004C8B5D8B6E8B7F8B288F098FCA8EDB8E69
:1005C000EC8EFD8E8A899B8989879A871D821E827F
:1005D0001F8218861B860E94051489859A85FC0156
:1005E00080819181A281B3818C879D87AE87BF87EF
:1005F0002C893D894E895F898C859D85AE85BF8517
:10060000098DBC01CD010E947205888B88898823E1
:1006100059F18C859D85AE85BF8589839A83AB838F
:10062000BC831A8E1B8E1C8E1D8E888D882309F428
:1006300065C089859A85FC01208131814281538181
:100640008C899D89AE89BF8980959095A095B0953C
:1006500082239323A423B52329853A85F901808336
:100660009183A283B3834AC08A8D9B8DAC8DBD8D4F
:10067000892B8A2B8B2B59F48C859D85AE85BF8564
:1006800089839A83AB83BC8381E08B8737C0888D55
:10069000882349F08D819E81AF81B885B1608D83BB
:1006A0009E83AF83B887898D882349F08D819E8191
:1006B000AF81B885B4608D839E83AF83B8872C8962
:1006C0003D894E895F898D819E81AF81B885822B5E
:1006D000932BA42BB52B29853A85F90134962A8DC5
:1006E0003B8D4C8D5D8D89019A01AC01BD01CF011F
:1006F0000E94D81619821A821B821C820E94121430
:10070000898B8A8D9B8DAC8DBD8D892B8A2B8B2BF4
:1007100009F465C08989882311F40E94CC090E94DC
:10072000841BDC01CB0189839A83AB83BC838981E1
:100730009A81AB81BC8188279927AA27B270892B1F
:100740008A2B8B2B09F042C0F091A200FF93F87F17
:10075000F093A20089859A85FC0180819181A28114
:10076000B38189839A83AB83BC832C893D894E896D
:100770005F8989819A81AB81BC81098DBC01CD01E2
:100780000E9472058823E9F0888D8823D1F089853D
:100790009A85FC0120813181428153818C899D8918
:1007A000AE89BF8980959095A095B09582239323BB
:1007B000A423B52329853A85F90180839183A283F7
:1007C000B38381E08B87FF91F093A20089819A81A6
:1007D000AB81BC81BB2789839A83AB83BC8389812E
:1007E0009A81AB81BC81BC01CD016D96CDBFDEBFCE
:1007F000DF91CF911F910F91FF90EF90DF90CF90FD
:100800000895CF93DF93CDB7DEB72C97CDBFDEBF72
:100810008F83988749875A876B877C878F819885D4
:1008200089839A83F091A200FF93F87FF093A2004E
:1008300089819A81FC0180819181A281B3818B831E
:100840009C83AD83BE8389819A81FC0120813181A3
:100850004281538189859A85AB85BC858095909529
:10086000A095B09582239323A423B52329813A81AF
:10087000F90180839183A283B383FF91F093A20057
:100880008B819C81AD81BE81BC01CD012C96CDBFF9
:10089000DEBFDF91CF910895CF93DF93CDB7DEB761
:1008A0006D97CDBFDEBF888F998F4A8F5B8F6C8F1E
:1008B0007D8F1B821C821D821E82888D998D888768
:1008C00099871F828885998504968A879B878A8560
:1008D0009B8503968C879D870E9405148A859B853E
:1008E000FC018781908589839A8388859985FC019D
:1008F00020813181428153818A8D9B8DAC8DBD8D4C
:10090000822B932BA42BB52B28853985F901808365
:100910009183A283B38395C089819A81FC018481EC
:1009200095818E879F8789819A81FC018081918141
:10093000A281B381888B998BAA8BBB8B1F828889FC
:100940009989AA89BB8988279927AA278C8B9D8B8F
:10095000AE8BBF8B88899989AA89BB89BB27888B75
:10096000998BAA8BBB8B8C899D89AE89BF8988277F
:100970009927AA27B470892B8A2B8B2BB1F48885F1
:100980009985FC012081318142815381888999892F
:10099000AA89BB8982239323A423B523892B8A2B7D
:1009A0008B2BE9F081E08F831AC088859985FC0143
:1009B000208131814281538188899989AA89BB89A3
:1009C000282339234A235B2388899989AA89BB89EB
:1009D000281739074A075B0711F481E08F838F815D
:1009E000882359F18C899D89AE89BF8988279927E9
:1009F000AA27B170892B8A2B8B2B81F02B813C810C
:100A00004D815E8188899989AA89BB89822B932B24
:100A1000A42BB52B8B839C83AD83BE83888599855E
:100A2000FC0180819181A281B381B26029813A81E8
:100A3000AC01BD01C9010E94B3178E859F858983D2
:100A40009A8329813A818C859D852817390709F079
:100A500063CF88859985FC01208131814281538152
:100A60008B819C81AD81BE8180959095A095B0953C
:100A700082239323A423B52328853985F901808314
:100A80009183A283B3830E94121488859985FC0107
:100A900080819181A281B381BC01CD016D96CDBFD2
:100AA000DEBFDF91CF910895CF93DF9300D000D0C8
:100AB000CDB7DEB789839A834B835C836D837E8356
:100AC0008B819C81AD81BE8129813A81AC01BD01C0
:100AD000C9010E944C0400002696CDBFDEBFDF9105
:100AE000CF9108950F93CF93DF93CDB7DEB72A97B9
:100AF000CDBFDEBF6A837B838C839D832E833F8340
:100B0000488759870A8719828A85882399F42A8118
:100B10003B814C815D818E819F81A885B98582232F
:100B20009323A423B523892B8A2B8B2BD1F081E02F
:100B3000898317C02A813B814C815D818E819F8191
:100B4000A885B985282339234A235B238E819F8179
:100B5000A885B985281739074A075B0711F481E092
:100B6000898389812A96CDBFDEBFDF91CF910F9116
:100B700008950F931F93CF93DF93CDB7DEB72997D7
:100B8000CDBFDEBF8A839B834C835D836E837F836F
:100B900028873987288539858C819D81AE81BF81E1
:100BA0006A817B8189019C01AD0184E595E00E9409
:100BB0004A21898389812996CDBFDEBFDF91CF91FC
:100BC0001F910F910895CF93DF9300D01F92CDB75F
:100BD000DEB78B839C8319821A820E9405142091B0
:100BE000E22C3091E32C8B819C81820F931F883BF8
:100BF0009B4018F52091E22C3091E32C8B819C8155
:100C0000280F391F8091E22C9091E32C82179307D3
:100C1000A0F48091E22C9091E32C865D9E4D898317
:100C20009A832091E22C3091E32C8B819C81820F5E
:100C3000931F8093E22C9093E32C0E9412148981DD
:100C40009A812496CDBFDEBFDF91CF910895CF93D7
:100C5000DF931F921F92CDB7DEB789839A8300007E
:100C60000F900F90DF91CF910895CF93DF931F9254
:100C70001F92CDB7DEB789839A8389819A819C01BF
:100C80002D5F3F4F89819A81FC0121833283298125
:100C90003A818FEF9FEFDC01F90183839483A58371
:100CA000B68389819A819C012D5F3F4F89819A810A
:100CB000FC012783308789819A819C012D5F3F4FFA
:100CC00089819A81FC012187328789819A81FC017F
:100CD000108200000F900F90DF91CF910895CF9375
:100CE000DF931F921F92CDB7DEB789839A838981E4
:100CF0009A81FC011286138600000F900F90DF91FD
:100D0000CF910895CF93DF9300D000D0CDB7DEB759
:100D10008B839C836D837E838B819C81FC0181818D
:100D2000928189839A838D819E8129813A81FC01F8
:100D30002483358389819A81FC01268137818D81C5
:100D40009E81FC012683378389819A81FC018681FB
:100D500097812D813E81FC012483358389819A818D
:100D60002D813E81FC01268337838D819E812B81DD
:100D70003C81FC01228733878B819C81FC0180812F
:100D800021E0280F8B819C81FC01208300002696A6
:100D9000CDBFDEBFDF91CF910895CF93DF93CDB765
:100DA000DEB72A97CDBFDEBF8F83988769877A87A2
:100DB00089859A85FC0180819181A281B3818B8391
:100DC0009C83AD83BE838B819C81AD81BE818F3F2F
:100DD0009F4FAF4FBF4F41F48F819885FC018185B4
:100DE000928589839A8320C08F8198850396898311
:100DF0009A8307C089819A81FC01848195818983C6
:100E00009A8389819A81FC0184819581FC012081EA
:100E10003181428153818B819C81AD81BE8182175A
:100E20009307A407B50730F789819A81FC012481D3
:100E3000358189859A85FC012483358389859A8546
:100E4000FC018481958129853A85FC0126833783BD
:100E500089859A8529813A81FC0126833783898196
:100E60009A8129853A85FC012483358389859A8571
:100E70002F813885FC01228733878F819885FC017B
:100E8000808121E0280F8F819885FC01208300005C
:100E90002A96CDBFDEBFDF91CF910895CF93DF9328
:100EA00000D01F92CDB7DEB78B839C838B819C8152
:100EB000FC018285938589839A838B819C81FC01C7
:100EC000848195812B813C81F90126813781FC0148
:100ED000268337838B819C81FC01868197812B81BE
:100EE0003C81F90124813581FC012483358389818A
:100EF0009A81FC01218132818B819C8128173907DD
:100F000051F48B819C81FC012681378189819A81F2
:100F1000FC01218332838B819C81FC011286138624
:100F200089819A81FC0180812FEF280F89819A8124
:100F3000FC01208389819A81FC0180812496CDBFA8
:100F4000DEBFDF91CF9108951F93CF93DF93CDB78D
:100F5000DEB780EA90E0FC01128180EA90E020EAAE
:100F600030E0F9012281287FFC012283812FDF916B
:100F7000CF911F910895CF93DF93CDB7DEB72A9716
:100F8000CDBFDEBF8D839E836F83788749875A8765
:100F90008D819E8121E1FC0120838D819E810197BD
:100FA0008D839E838D819E8122E2FC0120838D8131
:100FB0009E8101978D839E838D819E8123E3FC0119
:100FC00020838D819E8101978D839E838F8198855B
:100FD000CC01A0E0B0E089839A83AB83BC832981F4
:100FE0008D819E81FC0120838D819E8101978D835F
:100FF0009E8389819A81AB81BC81892F9A2FAB2FE7
:10100000BB2789839A83AB83BC8329818D819E8191
:10101000FC0120838D819E8101978D839E83898130
:101020009A81AB81BC81892F9A2FAB2FBB278983F3
:101030009A83AB83BC8329818D819E81FC012083AF
:101040008D819E8101978D839E838D819E8121E379
:10105000FC0120838D819E8101978D839E838D81EC
:101060009E8120E8FC0120838D819E8101978D83E4
:101070009E838D819E8127E8FC0120838D819E8146
:1010800001978D839E838D819E81FC0110828D81CD
:101090009E8101978D839E838D819E81FC011082AC
:1010A0008D819E8101978D839E838D819E8122E01B
:1010B000FC0120838D819E8101978D839E838D818C
:1010C0009E8123E0FC0120838D819E8101978D8389
:1010D0009E838D819E8124E0FC0120838D819E81F1
:1010E00001978D839E838D819E8125E0FC01208365
:1010F0008D819E8101978D839E838D819E8126E0C7
:10110000FC0120838D819E8101978D839E838D813B
:101110009E8127E0FC0120838D819E8101978D8334
:101120009E838D819E8128E0FC0120838D819E819C
:1011300001978D839E838D819E8129E0FC01208310
:101140008D819E8101978D839E838D819E8120E17B
:10115000FC0120838D819E8101978D839E838D81EB
:101160009E8121E1FC0120838D819E8101978D83E9
:101170009E838D819E8122E1FC0120838D819E8151
:1011800001978D839E838D819E8123E1FC012083C5
:101190008D819E8101978D839E838D819E8124E127
:1011A000FC0120838D819E8101978D839E838D819B
:1011B0009E8125E1FC0120838D819E8101978D8395
:1011C0009E838D819E8126E1FC0120838D819E81FD
:1011D00001978D839E838D819E8127E1FC01208371
:1011E0008D819E8101978D839E838D819E8128E1D3
:1011F000FC0120838D819E8101978D839E838D814B
:101200009E8129E1FC0120838D819E8101978D8340
:101210009E838D819E8120E2FC0120838D819E81B1
:1012200001978D839E838D819E8121E2FC01208325
:101230008D819E8101978D839E838D819E8122E287
:10124000FC0120838D819E8101978D839E838D81FA
:101250009E8123E2FC0120838D819E8101978D83F5
:101260009E8389859A85CC01A0E0B0E089839A832A
:10127000AB83BC8329818D819E81FC0120838D817C
:101280009E8101978D839E8389819A81AB81BC81E8
:10129000892F9A2FAB2FBB2789839A83AB83BC837B
:1012A00029818D819E81FC0120838D819E81019702
:1012B0008D839E838D819E8126E2FC0120838D811A
:1012C0009E8101978D839E838D819E8127E2FC0103
:1012D00020838D819E8101978D839E838D819E8148
:1012E00028E2FC0120838D819E8101978D839E835E
:1012F0008D819E8129E2FC0120838D819E81019751
:101300008D839E838D819E8120E3FC0120838D81CE
:101310009E8101978D839E838D819E812A96CDBF6C
:10132000DEBFDF91CF910895CF93DF93CDB7DEB7C6
:101330000E94DB0AA091E42CB091E52C0D900DBE2B
:101340000D900EBEEF91DF91CF91BF91AF919F9124
:101350008F917F916F915F914F913F912F911F914D
:101360000F91FF90EF90DF90CF90BF90AF909F9044
:101370008F907F906F905F904F903F902F901F9035
:101380000F90FF91F093A200FF91FFBFFF9108958E
:1013900081E0DF91CF910895FF93FFB7FF93F09124
:1013A000A200FF93F87FF093A2000F921F921124E6
:1013B0002F923F924F925F926F927F928F929F9265
:1013C000AF92BF92CF92DF92EF92FF920F931F9353
:1013D0002F933F934F935F936F937F938F939F933D
:1013E000AF93BF93CF93DF93EF93A091E42CB09191
:1013F000E52C0DB60D920EB60D920E94E015A0914F
:10140000E42CB091E52C0D900DBE0D900EBEEF9129
:10141000DF91CF91BF91AF919F918F917F916F910C
:101420005F914F913F912F911F910F91FF90EF90FE
:10143000DF90CF90BF90AF909F908F907F906F90F4
:101440005F904F903F902F901F900F90FF91F093DF
:10145000A200FF91FFBFFF91089500001F93CF935B
:10146000DF931F92CDB7DEB789838091A72D982F88
:101470008981892B8093A72D80EA90E0FC018081EF
:10148000813061F080EA90E0FC018081823031F0AF
:1014900080EA90E0FC018081843079F48091A72D6E
:1014A000882359F00E94A407182F1092A72D0E949C
:1014B000E01580EA90E0FC01128300000F90DF91BC
:1014C000CF911F9108951F93CF93DF93CDB7DEB7D0
:1014D0000E94A407182F0E94D01480EA90E0FC011B
:1014E00012830000DF91CF911F910895FF93FFB702
:1014F000FF93F091A200FF93F87FF093A2000F9268
:101500001F9211242F923F924F925F926F927F927F
:101510008F929F92AF92BF92CF92DF92EF92FF9203
:101520000F931F932F933F934F935F936F937F93EB
:101530008F939F93AF93BF93CF93DF93EF93A0913C
:10154000E42CB091E52C0DB60D920EB60D920E94D2
:10155000630A81E00E942E0AA091E42CB091E52C50
:101560000D900DBE0D900EBEEF91DF91CF91BF910A
:10157000AF919F918F917F916F915F914F913F912B
:101580002F911F910F91FF90EF90DF90CF90BF9020
:10159000AF909F908F907F906F905F904F903F9013
:1015A0002F901F900F90FF91F093A200FF91FFBF2B
:1015B000FF9118950000CF93DF9300D01F92CDB715
:1015C000DEB780E09DE7A0E0B0E089839A83AB833B
:1015D000BC8389819A81AB81BC81689415F8B695EA
:1015E000A795979587951694D1F789839A83AB83AE
:1015F000BC8389819A81AB81BC810197A109B10922
:1016000089839A83AB83BC8380E098E029813A8107
:10161000FC0126A337A365E080E098E00E94080261
:1016200061E080E098E00E94400200002496CDBF77
:10163000DEBFDF91CF910895CF93DF93CDB7DEB7B3
:101640002597CDBFDEBF8B839C836D838B819C816F
:1016500089839A83F091A200FF93F87FF093A20010
:1016600089819A81FC018081918129813A81F901E6
:10167000278D422F50E029813A81F90120A1222FA4
:1016800030E0429FB001439F700D529F700D1124B6
:101690009B01280F391F89819A81FC0122833383A2
:1016A00089819A81FC01168E89819A81FC012081B1
:1016B000318189819A81FC012483358389819A81D2
:1016C000FC018081918129813A81F901278D222FA6
:1016D00030E0A9014150510929813A81F90120A145
:1016E000222F30E0429FB001439F700D529F700D3A
:1016F00011249B01280F391F89819A81FC012683BF
:10170000378389819A812FEFFC0121A389819A81F6
:101710002FEFFC0122A38D81882381F489819A8196
:10172000FC0180858823A1F089819A8108960E9416
:101730004B17882369F00E94CC090AC089819A81DD
:1017400008960E94350689819A8143960E94350643
:10175000FF91F093A20081E02596CDBFDEBFDF911F
:10176000CF9108950F931F93CF93DF93CDB7DEB73B
:101770002997CDBFDEBF8F836887498788858823F7
:1017800019F419821A820FC08F81482F50E0888582
:10179000282F30E0429FC001439F900D529F900D33
:1017A000112489839A8389819A8185960E94E30511
:1017B0008B839C838B819C81892B81F08B819C8185
:1017C00085968D839E832B813C818D819E818901AD
:1017D0002985AC0168858F810E94F80B8B819C81E3
:1017E0002996CDBFDEBFDF91CF911F910F91089554
:1017F0000F931F93CF93DF93CDB7DEB72797CDBF5E
:10180000DEBF89836A834B835C832D830E831F83B2
:101810008A81882341F48E819F812E813F81FC0142
:101820002083318307C08E819F812B813C81FC0105
:10183000208331838E819F812981FC01278F8E81B6
:101840009F812A81FC0120A38E819F8161E00E94FB
:101850001C0B8E819F812D81FC0124A30000279603
:10186000CDBFDEBFDF91CF911F910F9108950F93F0
:10187000CF93DF931F921F92CDB7DEB789839A83F0
:1018800089819A81892BC1F089819A81FC01128218
:10189000138289819A81FC011082118289819A8147
:1018A000FC01168289819A8100E020E030E0A901E4
:1018B00060E070E00E94810C00000F900F90DF91BB
:1018C000CF910F910895CF93DF93CDB7DEB72597D2
:1018D000CDBFDEBF8D8381E089831A824D816A810D
:1018E00089810E94B20B8B839C838B819C810E9497
:1018F000370C8B819C812596CDBFDEBFDF91CF91C8
:1019000008950F93CF93DF93CDB7DEB76297CDBF26
:10191000DEBF8A879B876C877D872E873F87488BB2
:10192000598B0A8B19828A859B858A839B83F091C8
:10193000A200FF93F87FF093A2008A819B81FC01B3
:10194000268D8A819B81FC01878D281718F08A8952
:10195000823019F52C853D858A819B814A89B901A0
:101960000E949C0F8C838A819B81FC018389882340
:1019700051F08A819B8143960E944B17882341F046
:101980000E94CC0905C08C81882311F00E94CC09EB
:10199000FF91F093A20081E06FC08E859F85A8899A
:1019A000B989892B8A2B8B2B29F4FF91F093A20004
:1019B00080E062C08981882331F4CE0105960E94BF
:1019C000161881E08983FF91F093A2000E9405140C
:1019D000F091A200FF93F87FF093A2008A819B818F
:1019E000FC0181A18F3F21F48A819B81FC0111A21E
:1019F0008A819B81FC0182A18F3F21F48A819B8196
:101A0000FC0112A2FF91F093A2009E01225F3F4FC2
:101A1000CE010596B9010E943918882331F58A81D3
:101A20009B810E943C118823C9F08E859F85A889DF
:101A3000B9892A813B81285F3F4FAC01BD01C901B3
:101A40000E94B0168A819B810E94B6100E941214D7
:101A5000882309F06CCF0E94CC0969CF8A819B81D1
:101A60000E94B6100E94121462CF8A819B810E944C
:101A7000B6100E94121480E06296CDBFDEBFDF91E7
:101A8000CF910F910895CF93DF93CDB7DEB72C9709
:101A9000CDBFDEBF8E839F83688779874A875B8748
:101AA0002C878E819F818A839B830E94A4078C83CD
:101AB0008A819B81FC01268D8A819B81FC01878D17
:101AC000281718F08C85823089F58A819B81FC016A
:101AD00082A18D83288539858A819B814C85B901B6
:101AE0000E949C0F8D818F3FB9F48A819B81FC01FC
:101AF00083898823C1F08A819B8143960E944B177A
:101B0000882389F08A859B85892B69F08A859B8546
:101B100021E0FC01208307C08D818F5F282F8A81FF
:101B20009B81FC0122A381E0898301C0198280EAA4
:101B300090E02C81FC01228389812C96CDBFDEBFF1
:101B4000DF91CF910895CF93DF93CDB7DEB7619743
:101B5000CDBFDEBF8A879B876C877D872E873F87B7
:101B6000488B598B19828A859B858A839B83F09148
:101B7000A200FF93F87FF093A2008A819B81FC0171
:101B8000868D8C838C81882311F12C853D858A81FB
:101B90009B81B9010E9466108C812FEF280F8A81EA
:101BA0009B81FC01268F8A819B81FC018085882393
:101BB00049F08A819B8108960E944B17882311F077
:101BC0000E94CC09FF91F093A20081E076C08E853F
:101BD0009F85A889B989892B8A2B8B2B29F4FF91A2
:101BE000F093A20080E069C08981882331F4CE019E
:101BF00005960E94161881E08983FF91F093A20058
:101C00000E940514F091A200FF93F87FF093A200C8
:101C10008A819B81FC0181A18F3F21F48A819B8174
:101C2000FC0111A28A819B81FC0182A18F3F21F4DA
:101C30008A819B81FC0112A2FF91F093A2009E0178
:101C4000225F3F4FCE010596B9010E9439188823C3
:101C500031F58A819B810E941B118823C9F08E85F2
:101C60009F85A889B9892A813B812D5E3F4FAC01B0
:101C7000BD01C9010E94B0168A819B810E94B610E5
:101C80000E941214882309F072CF0E94CC096FCFF2
:101C90008A819B810E94B6100E94121468CF8A81AB
:101CA0009B810E94B6100E9412148A819B810E941F
:101CB0001B11882309F45BCF80E06196CDBFDEBFA6
:101CC000DF91CF910895CF93DF93CDB7DEB76197C2
:101CD000CDBFDEBF8C879D874E875F87688B798BF2
:101CE00019828C859D858B839C831A82F091A2003A
:101CF000FF93F87FF093A2008B819C81FC01868D7D
:101D00008D838D81882351F18D812FEF280F8B8159
:101D10009C81FC01268F8B819C81FC0180819181BB
:101D2000892B41F40E94CA1B9C018B819C81FC0180
:101D3000228333838B819C81FC018085882349F039
:101D40008B819C8108960E944B17882311F00E947A
:101D5000CC09FF91F093A20081E0A8C08E859F85F9
:101D6000A889B989892B8A2B8B2B29F4FF91F093B1
:101D7000A20080E09BC08981882331F4CE010796C0
:101D80000E94161881E08983FF91F093A2000E94BF
:101D90000514F091A200FF93F87FF093A2008B81CD
:101DA0009C81FC0181A18F3F21F48B819C81FC01EE
:101DB00011A28B819C81FC0182A18F3F21F48B8138
:101DC0009C81FC0112A2FF91F093A2009E01225F70
:101DD0003F4FCE010796B9010E943918882309F0B8
:101DE0003EC08B819C810E941B11882389F18B81CD
:101DF0009C81FC0180819181892B89F4F091A20062
:101E0000FF93F87FF093A2008B819C81FC0182817B
:101E100093810E9494198A83FF91F093A2008E858A
:101E20009F85A889B9892B813C812D5E3F4FAC01EC
:101E3000BD01C9010E94B0168B819C810E94B61021
:101E40000E941214882309F051CF0E94CC094ECF72
:101E50008B819C810E94B6100E94121447CF8B8107
:101E60009C810E94B6100E9412148B819C810E945A
:101E70001B11882309F43ACF8A818823B1F0F091AD
:101E8000A200FF93F87FF093A2008B819C810E94B7
:101E9000780F8E838B819C81FC01828193816E817E
:101EA0000E94DA1AFF91F093A20080E06196CDBF04
:101EB000DEBFDF91CF910895CF93DF9300D0CDB7F0
:101EC000DEB78A839B83F091A200FF93F87FF093A3
:101ED000A2008A819B81FC01868D8983FF91F0930A
:101EE000A20089812396CDBFDEBFDF91CF910895F7
:101EF000CF93DF9300D0CDB7DEB78A839B838A81EF
:101F00009B81FC018389882379F08A819B81FC0174
:101F1000828D938DFC0180819181A281B381982F64
:101F200084E0891B898301C0198289812396CDBFF2
:101F3000DEBFDF91CF910895CF93DF93CDB7DEB7AA
:101F40002797CDBFDEBF8B839C836D837E834F83BA
:101F500019828B819C81FC01868D8A838B819C8177
:101F6000FC0180A18823B1F48B819C81FC018081DC
:101F70009181892B09F09CC08B819C81FC0182811D
:101F800093810E944E1A89838B819C81FC0112826D
:101F900013828EC08F818823D9F58B819C81FC01AF
:101FA00080A1482F50E08B819C81FC018481958128
:101FB0002D813E81B9010E948B368B819C81FC0171
:101FC000248135818B819C81FC0180A1882F90E048
:101FD000280F391F8B819C81FC01248335838B81E1
:101FE0009C81FC01248135818B819C81FC01828153
:101FF00093812817390708F45BC08B819C81FC0111
:10200000208131818B819C81FC012483358350C0E8
:102010008B819C81FC0180A1482F50E08B819C81A9
:10202000FC01868197812D813E81B9010E948B360A
:102030008B819C81FC01268137818B819C81FC01F5
:1020400080A1882F90E0919581959109280F391FE3
:102050008B819C81FC01268337838B819C81FC01D1
:10206000268137818B819C81FC0180819181281799
:102070003907A8F48B819C81FC01228133818B81FB
:102080009C81FC0180A1882F90E091958195910918
:10209000280F391F8B819C81FC01268337838F8118
:1020A000823031F48A81882319F08A8181508A83B1
:1020B0008A8121E0280F8B819C81FC01268F8981F8
:1020C0002796CDBFDEBFDF91CF910895CF93DF93E9
:1020D00000D01F92CDB7DEB789839A836B837C8350
:1020E00089819A81FC0180A18823C9F189819A8123
:1020F000FC012681378189819A81FC0180A1882F8A
:1021000090E0280F391F89819A81FC01268337834B
:1021100089819A81FC012681378189819A81FC011C
:10212000828193812817390750F089819A81FC01B7
:102130002081318189819A81FC01268337838981BD
:102140009A81FC0180A1482F50E089819A81FC018D
:10215000268137818B819C81B9010E948B360000DA
:102160002496CDBFDEBFDF91CF910895CF93DF934B
:1021700000D01F92CDB7DEB78B839C83F091A20075
:10218000FF93F87FF093A2008B819C81FC0182A1D8
:10219000898312C08B819C81FC018389882381F013
:1021A0008B819C8143960E944B17882311F00E94DB
:1021B000E118898181508983898118165CF301C0F7
:1021C00000008B819C812FEFFC0122A3FF91F093F3
:1021D000A200F091A200FF93F87FF093A2008B8100
:1021E0009C81FC0181A18A8312C08B819C81FC01AE
:1021F0008085882381F08B819C8108960E944B17F3
:10220000882311F00E94E1188A8181508A838A8193
:1022100018165CF301C000008B819C812FEFFC013C
:1022200021A3FF91F093A20000002496CDBFDEBF52
:10223000DF91CF910895CF93DF9300D0CDB7DEB774
:102240008A839B83F091A200FF93F87FF093A20012
:102250008A819B81FC01868D882319F481E0898322
:1022600001C01982FF91F093A20089812396CDBF0E
:10227000DEBFDF91CF910895CF93DF9300D0CDB72C
:10228000DEB78A839B83F091A200FF93F87FF093DF
:10229000A2008A819B81FC01268D8A819B81FC01A1
:1022A000878D281719F481E0898301C01982FF9175
:1022B000F093A20089812396CDBFDEBFDF91CF913D
:1022C0000895CF93DF93CDB7DEB72997CDBFDEBF9B
:1022D0008B839C834D835E836F83788729878B8173
:1022E0009C8189839A83F091A200FF93F87FF093F9
:1022F000A20089819A81FC0181A18F3F21F489810B
:102300009A81FC0111A289819A81FC0182A18F3FEF
:1023100021F489819A81FC0112A2FF91F093A2001D
:1023200089819A81FC01868D882371F489819A8143
:10233000FC0173968D819E81AF81B8852985AC01A2
:10234000BD01CF010E94171789819A810E94B610A2
:1023500000002996CDBFDEBFDF91CF9108958F9207
:102360009F92AF92BF92CF92DF92EF92FF920F9324
:102370001F93CF93DF93CDB7DEB76097CDBFDEBF9E
:102380008E839F83688779874A875B872C873D8701
:102390000E87EF86F88A8A859B850E94E3058C83E9
:1023A0009D838C819D81892BB9F08EE290E00E9403
:1023B000E30589839A8389819A81892B41F08981F8
:1023C0009A812C813D81FC01238F348F07C08C8141
:1023D0009D810E94270602C019821A8289819A81F2
:1023E000892B09F18A859B85CC01A0E0B0E00981A9
:1023F0001A814F8558892C853D8568857985EE81C0
:10240000FF81812C912C58016A01EE8489019C0185
:10241000AD01CF010E94261289819A810E94051385
:1024200081E08B8302C08FEF8B838B816096CDBF61
:10243000DEBFDF91CF911F910F91FF90EF90DF9062
:10244000CF90BF90AF909F908F9008958F929F9262
:10245000AF92BF92CF92DF92EF92FF920F931F93B2
:10246000CF93DF93CDB7DEB76497CDBFDEBF8C834C
:102470009D836E837F83288739874A875B870C8794
:102480001D87EE86CF86D88AA98ABA8A8B8A9C8ACB
:102490002885398589899A89FC01838D948DA901C4
:1024A00065EA70E00E94943689899A89FC01238D3F
:1024B000348D888599850197820F931F8A839B832A
:1024C000198221C08981882F90E02981222F30E054
:1024D0004E815F81240F351FF901408129893A8996
:1024E000820F931F4D96FC0140838981882F90E0D5
:1024F0002E813F81820F931FFC018081882339F058
:1025000089818F5F898389818830E0F201C0000072
:1025100089899A89FC0114A28E85843010F083E0A9
:102520008E8789899A892E85FC01228F89899A89CB
:102530002E85FC0127A389899A89FC0110A6898927
:102540009A8902960E946F0689899A890E960E943E
:102550006F0689899A8929893A89FC0122873387FC
:102560008E85882F90E0A0E0B0E024E030E040E0ED
:1025700050E079018A01E81AF90A0A0B1B0BD8010D
:10258000C70129893A89F90186879787A08BB18B82
:1025900089899A8929893A89FC01268B378B89890F
:1025A0009A89FC0111A612A613A614A689899A89F4
:1025B000FC0115A64C855D852C813D818A819B811E
:1025C000B9010E94BB079C0189899A89FC0120837B
:1025D00031838F859889892B39F08F85988929894E
:1025E0003A89FC012083318300006496CDBFDEBFB1
:1025F000DF91CF911F910F91FF90EF90DF90CF90DF
:10260000BF90AF909F908F900895CF93DF931F92CC
:102610001F92CDB7DEB789839A83F091A200FF9312
:10262000F87FF093A2008091422D8F5F8093422D1E
:102630008091E42C9091E52C892B69F489819A8111
:102640008093E42C9093E52C8091422D8130C9F445
:102650000E94FD1816C08091482D882391F4809126
:10266000E42C9091E52CFC01228D89819A81FC015A
:10267000828D821730F089819A818093E42C909327
:10268000E52C80914C2D8F5F80934C2D20914C2D0B
:1026900089819A81FC0125A389819A81FC01928D0F
:1026A0008091472D891730F489819A81FC01828DB0
:1026B0008093472D89819A81AC014E5F5F4F89815C
:1026C0009A81FC01828D282F30E06BE0629FC0016F
:1026D000639F900D11248A51934DBA010E94820686
:1026E000FF91F093A2008091482D882371F0809192
:1026F000E42C9091E52CFC01228D89819A81FC01CA
:10270000828D281710F40E94CC0900000F900F90C2
:10271000DF91CF910895CF93DF93CDB7DEB72597A3
:10272000CDBFDEBF6A837B838C839D8319828A81C0
:102730009B81AC81BD81892B8A2B8B2B71F00E94F0
:1027400005148A819B81AC81BD8140E0BC01CD0133
:102750000E94E41B0E94121489838981882311F44A
:102760000E94CC0900002596CDBFDEBFDF91CF913E
:102770000895EF92FF920F93CF93DF931F92CDB7FF
:10278000DEB70F2EF1E5EF2EFDE2FF2EF02D00E07B
:1027900020E030E048EC50E064E070E28CEE98E13C
:1027A0000E94AF1189838981813019F40E94851CB0
:1027B00089838981813009F580EA90E020EA30E060
:1027C000F9012281287FFC0122838FEF9FEFDC013A
:1027D00080934D2D90934E2DA0934F2DB093502D5F
:1027E00081E08093482D1092432D1092442D109239
:1027F000452D1092462D0E94940900000F90DF9104
:10280000CF910F91FF90EF900895CF93DF93CDB7C5
:10281000DEB78091532D8F5F8093532D0000DF91A1
:10282000CF910895CF93DF9300D01F92CDB7DEB73D
:1028300019821A821B82F091A200FF93F87FF09315
:10284000A2008091532D81508093532D8091532D60
:10285000882309F074C08091422D882309F46FC049
:1028600046C08091332D9091342DFC018085918557
:1028700089839A8389819A810E960E944E07898165
:102880009A8102960E944E0789819A81FC01928D5D
:102890008091472D891730F489819A81FC01828DBE
:1028A0008093472D89819A81AC014E5F5F4F89816A
:1028B0009A81FC01828D282F30E06BE0629FC0017D
:1028C000639F900D11248A51934DBA010E94820694
:1028D00089819A81FC01228D8091E42C9091E52CD4
:1028E000FC01828D281718F081E080934A2D809199
:1028F0002C2D882309F0B5CF89819A81892B11F07D
:102900000E9440198091492D8C838C81882379F015
:102910000E94D014882319F081E080934A2D8C8185
:1029200081508C838C81882399F71092492D809156
:102930004A2D882321F081E08B830E94CC09FF91EE
:10294000F093A2008B812496CDBFDEBFDF91CF91A3
:102950000895CF93DF9300D01F92CDB7DEB7F091EB
:10296000A200FF93F87FF093A2008091432D9091F5
:10297000442DA091452DB091462D89839A83AB8338
:10298000BC83FF91F093A20089819A81AB81BC81C5
:10299000BC01CD012496CDBFDEBFDF91CF9108955C
:1029A000CF93DF93CDB7DEB72D97CDBFDEBF1982B2
:1029B0008091532D882309F0F1C08091432D90918F
:1029C000442DA091452DB091462D0196A11DB11D1C
:1029D0008A839B83AC83BD838A819B81AC81BD81CB
:1029E0008093432D9093442DA093452DB093462D75
:1029F0008A819B81AC81BD81892B8A2B8B2BD9F459
:102A00008091282D9091292D8E839F8380912A2D4E
:102A100090912B2D8093282D9093292D8E819F812D
:102A200080932A2D90932B2D80914B2D8F5F809337
:102A30004B2D0E94401980914D2D90914E2DA091CB
:102A40004F2DB091502D2A813B814C815D812817FB
:102A500039074A075B0708F48AC08091282D9091B6
:102A6000292DFC018081882361F48FEF9FEFDC0129
:102A700080934D2D90934E2DA0934F2DB093502DBC
:102A800076C08091282D9091292DFC018781908519
:102A9000FC01808591858887998788859985FC01C7
:102AA00082819381A481B5818A879B87AC87BD870A
:102AB0002A813B814C815D818A859B85AC85BD8562
:102AC000281739074A075B0768F48A859B85AC8518
:102AD000BD8580934D2D90934E2DA0934F2DB09397
:102AE000502D45C08885998502960E944E0788859D
:102AF0009985FC01808D918D892B29F08885998598
:102B00000E960E944E0788859985FC01928D8091D2
:102B1000472D891730F488859985FC01828D809333
:102B2000472D88859985AC014E5F5F4F88859985D3
:102B3000FC01828D282F30E06BE0629FC001639F13
:102B4000900D11248A51934DBA010E948206888506
:102B50009985FC01228D8091E42C9091E52CFC015B
:102B6000828D281708F479CF81E0898376CF809110
:102B7000E42C9091E52CFC01828D282F30E04BE075
:102B8000429FC001439F900D11248A51934DFC0137
:102B90008081823040F081E0898305C08091492D99
:102BA0008F5F8093492D80914A2D882311F081E019
:102BB000898389812D96CDBFDEBFDF91CF910895A6
:102BC000CF93DF93CDB7DEB72997CDBFDEBF80911E
:102BD000532D882321F081E080934A2DBAC01092B2
:102BE0004A2D8091E42C9091E52CFC01838D948DED
:102BF0008A839B8385EA95EADC018C839D83AE837F
:102C0000BF838A819B81FC01208131814281538174
:102C10008C819D81AE81BF81281739074A075B07E8
:102C200099F58A819B810496FC0120813181428142
:102C300053818C819D81AE81BF81281739074A0756
:102C40005B0711F58A819B810896FC012081318107
:102C5000428153818C819D81AE81BF8128173907C4
:102C60004A075B0789F48A819B810C96FC012081CD
:102C70003181428153818C819D81AE81BF81281732
:102C800039074A075B0771F08091E42C9091E52C9D
:102C90009C01235E3F4F8091E42C9091E52CB9017B
:102CA0000E945C028091472D898303C089818150F5
:102CB00089838981282F30E04BE0429FC001439FE8
:102CC000900D11248A51934DFC018081882371F36A
:102CD0008981282F30E04BE0429FC001439F900D37
:102CE00011248A51934D8887998788859985FC019D
:102CF00081819281FC012481358188859985FC013F
:102D00002183328388859985FC01218132818885E0
:102D1000998503962817390769F488859985FC01F8
:102D200081819281FC012481358188859985FC010E
:102D30002183328388859985FC0181819281FC0100
:102D4000808591858093E42C9093E52C89818093F4
:102D5000472D00002996CDBFDEBFDF91CF910895AA
:102D6000CF93DF9300D000D0CDB7DEB789839A83AD
:102D70004B835C836D837E838091E42C9091E52C62
:102D80009C01225F3F4F89819A81B9010E94CD0643
:102D90008B819C81AD81BE8141E0BC01CD010E944F
:102DA000E41B00002696CDBFDEBFDF91CF910895D2
:102DB0000F931F93CF93DF93CDB7DEB72A97CDBF85
:102DC000DEBF89839A834B835C836D837E830F830D
:102DD000188729873A872091E42C3091E52C8B8144
:102DE0009C81AD81BE81B068F90186879787A08BF1
:102DF000B18B8091E42C9091E52C9C01225F3F4F98
:102E000089819A81B9010E9482068F819885A9855E
:102E1000BA8541E0BC01CD010E94E41B00002A9666
:102E2000CDBFDEBFDF91CF911F910F910895CF935A
:102E3000DF93CDB7DEB72797CDBFDEBF89839A83F7
:102E40004B835C836D837E832F838091E42C9091F0
:102E5000E52C9C01225F3F4F89819A81B9010E9434
:102E600082068F81882339F08FEF9FEFDC018B83FF
:102E70009C83AD83BE838B819C81AD81BE814F815C
:102E8000BC01CD010E94E41B00002796CDBFDEBF30
:102E9000DF91CF910895CF93DF93CDB7DEB725971C
:102EA000CDBFDEBF8C839D838C819D81FC0187819A
:102EB0009085FC01808591858A839B838A819B8193
:102EC0000E960E944E078091532D882351F58A81DA
:102ED0009B8102960E944E078A819B81FC01928D04
:102EE0008091472D891730F48A819B81FC01828D66
:102EF0008093472D8A819B81AC014E5F5F4F8A8111
:102F00009B81FC01828D282F30E06BE0629FC00125
:102F1000639F900D11248A51934DBA010E9482063D
:102F200008C08A819B810E96BC018CE29DE20E94C2
:102F300082068A819B81FC01228D8091E42C9091F4
:102F4000E52CFC01828D821730F481E0898381E0D9
:102F500080934A2D01C0198289812596CDBFDEBF9D
:102F6000DF91CF910895CF93DF93CDB7DEB7289748
:102F7000CDBFDEBF8B839C834D835E836F83788759
:102F80008D819E81AF81B885B0682B813C81F9012C
:102F900080839183A283B3838B819C81FC01808594
:102FA000918589839A838B819C810E944E078981B8
:102FB0009A8102960E944E0789819A81FC01928D26
:102FC0008091472D891730F489819A81FC01828D87
:102FD0008093472D89819A81AC014E5F5F4F898133
:102FE0009A81FC01828D282F30E06BE0629FC00146
:102FF000639F900D11248A51934DBA010E9482065D
:1030000089819A81FC01228D8091E42C9091E52C9C
:10301000FC01828D821718F481E080934A2D000014
:103020002896CDBFDEBFDF91CF910895CF93DF9378
:103030001F921F92CDB7DEB789839A8320914B2DC3
:1030400089819A81FC0120838091432D9091442DA8
:10305000A091452DB091462D29813A81F9018183B6
:103060009283A383B48300000F900F90DF91CF91E0
:103070000895EF92FF920F931F93CF93DF93CDB7F5
:10308000DEB72D97CDBFDEBF8A879B876C877D8794
:10309000F091A200FF93F87FF093A2008091432D5E
:1030A0009091442DA091452DB091462D8A839B830C
:1030B000AC83BD838A859B85FC0181819281A3813C
:1030C000B4812A813B814C815D8179018A01E81AB2
:1030D000F90A0A0B1B0BD801C7018E839F83A887AF
:1030E000B9878C859D85FC0180819181A281B38106
:1030F0008F3F9F4FAF4FBF4F11F4198254C08A8545
:103100009B85FC01908180914B2D981799F08A85C1
:103110009B85FC0121813281438154818A819B817D
:10312000AC81BD8182179307A407B50718F081E031
:10313000898339C08C859D85FC0120813181428144
:1031400053818E819F81A885B98582179307A40733
:10315000B50700F58C859D85FC0120813181428178
:1031600053818E819F81A885B98579018A01E81AEA
:10317000F90A0A0B1B0BD801C7012C853D85F90103
:1031800080839183A283B3838A859B850E941618CE
:10319000198209C08C859D85FC01108211821282E2
:1031A000138281E08983FF91F093A20089812D969B
:1031B000CDBFDEBFDF91CF911F910F91FF90EF90B8
:1031C0000895CF93DF93CDB7DEB781E080934A2D8A
:1031D0000000DF91CF910895CF93DF931F921F924C
:1031E000CDB7DEB789839A830E9438198091E62C87
:1031F0008230D0F30E94CC09F7CFCF93DF931F9298
:10320000CDB7DEB7198210C08981282F30E04BE09E
:10321000429FC001439F900D11248A51934D0E94FB
:10322000350689818F5F89838981843068F382E1E3
:103230009DE20E9435068DE19DE20E9435068CE2FA
:103240009DE20E94350687E39DE20E94350682E1F9
:103250009DE28093282D9093292D8DE19DE280930E
:103260002A2D90932B2D00000F90DF91CF91089580
:10327000CF93DF93CDB7DEB70000DF91CF910895F4
:10328000CF93DF931F921F92CDB7DEB78091282D89
:103290009091292DFC018081882361F48FEF9FEFAD
:1032A000DC0180934D2D90934E2DA0934F2DB09324
:1032B000502D1BC08091282D9091292DFC018781D4
:1032C0009085FC018085918589839A8389819A8183
:1032D000FC0182819381A481B58180934D2D9093CF
:1032E0004E2DA0934F2DB093502D00000F900F90B6
:1032F000DF91CF910895CF93DF931F92CDB7DEB7C3
:103300008091482D882319F481E0898308C0809139
:10331000532D882319F482E0898301C019828981A1
:103320000F90DF91CF910895EF92FF920F931F932B
:10333000CF93DF93CDB7DEB72597CDBFDEBF8C83AC
:103340009D838C819D818A839B8319828C819D8141
:10335000892B09F498C08A819B81FC01228D809180
:10336000E42C9091E52CFC01828D281708F07DC09B
:103370008A819B81FC0186859785A089B189BB23C1
:10338000ECF08091E42C9091E52CFC01828D882F4B
:1033900090E0A0E0B0E024E030E040E050E07901CF
:1033A0008A01E81AF90A0A0B1B0BD801C7012A8106
:1033B0003B81F90186879787A08BB18B8A819B819E
:1033C000FC01248535858A819B81FC01828D482FF3
:1033D00050E06BE0649FC001659F900D11248A51FD
:1033E000934D28173907A1F58A819B8102960E9487
:1033F0004E078091E42C9091E52CFC01228D8A816E
:103400009B81FC01228F8A819B81FC01928D80919E
:10341000472D891730F48A819B81FC01828D80932E
:10342000472D8A819B81AC014E5F5F4F8A819B81D2
:10343000FC01828D282F30E06BE0629FC001639F0A
:10344000900D11248A51934DBA010E9482060AC040
:103450008091E42C9091E52CFC01228D8A819B8146
:10346000FC01228F81E089830EC08A819B81FC014F
:1034700027A18091E42C9091E52CFC01828D2817E6
:1034800010F481E0898389812596CDBFDEBFDF916D
:10349000CF911F910F91FF90EF900895EF92FF92BF
:1034A0000F931F93CF93DF93CDB7DEB72597CDBF93
:1034B000DEBF8C839D838C819D818A839B8319824F
:1034C0008C819D81892B09F46AC08A819B81FC01D2
:1034D00080A52FEF280F8A819B81FC0120A78A817C
:1034E0009B81FC01228D8A819B81FC0187A1281789
:1034F00009F455C08A819B81FC0180A5882309F0CD
:103500004EC08A819B8102960E944E078A819B81D0
:10351000FC0127A18A819B81FC01228F8A819B81EA
:10352000FC01828D882F90E0A0E0B0E024E030E044
:1035300040E050E079018A01E81AF90A0A0B1B0BF6
:10354000D801C7012A813B81F90186879787A08B23
:10355000B18B8A819B81FC01928D8091472D8917C7
:1035600030F48A819B81FC01828D8093472D8A8172
:103570009B81AC014E5F5F4F8A819B81FC01828DF4
:10358000282F30E06BE0629FC001639F900D1124F3
:103590008A51934DBA010E94820681E08983898114
:1035A0002596CDBFDEBFDF91CF911F910F91FF9088
:1035B000EF900895EF92FF920F931F93CF93DF93B5
:1035C000CDB7DEB72897CDBFDEBF8E839F836887D8
:1035D0008E819F818A839B8381E08C838E819F81F2
:1035E000892B09F486C08A819B81FC0197A188857B
:1035F000981718F48885898305C08A819B81FC010E
:1036000087A189838A819B81FC01928D898198178A
:1036100009F46FC08A819B81FC0190A58C81981769
:1036200009F067C08A819B81FC01828D8D838A812C
:103630009B812981FC01228F8A819B81FC018685E7
:103640009785A089B189BB23C4F08981882F90E038
:10365000A0E0B0E024E030E040E050E079018A01F1
:10366000E81AF90A0A0B1B0BD801C7012A813B8112
:10367000F90186879787A08BB18B8A819B81FC019A
:10368000248535858D81482F50E06BE0649FC00113
:10369000659F900D11248A51934D2817390749F5DC
:1036A0008A819B8102960E944E078A819B81FC0140
:1036B000928D8091472D891730F48A819B81FC017E
:1036C000828D8093472D8A819B81AC014E5F5F4F35
:1036D0008A819B81FC01828D282F30E06BE0629F04
:1036E000C001639F900D11248A51934DBA010E942D
:1036F000820600002896CDBFDEBFDF91CF911F91DB
:103700000F91FF90EF900895EF92FF920F931F9308
:10371000CF93DF9300D01F92CDB7DEB78091E42C1A
:103720009091E52CFC0186859785A089B1898983D4
:103730009A83AB83BC836091E42C7091E52C8091DB
:10374000E42C9091E52CFC01828D882F90E0A0E084
:10375000B0E024E030E040E050E079018A01E81A6E
:10376000F90A0A0B1B0BD801C701FB018687978753
:10377000A08BB18B89819A81AB81BC81BC01CD01C9
:103780002496CDBFDEBFDF91CF911F910F91FF90A7
:10379000EF900895CF93DF93CDB7DEB78091E42CFF
:1037A0009091E52C892B49F08091E42C9091E52CA7
:1037B000FC0120A52F5FFC0120A78091E42C9091B3
:1037C000E52CDF91CF910895CF93DF93CDB7DEB78E
:1037D0002D97CDBFDEBF69877A878B879C874D8702
:1037E0008091432D9091442DA091452DB091462D6F
:1037F00089839A83AB83BC838091E42C9091E52CE0
:1038000002960E944E0789859A85AB85BC858F3FBD
:103810009F4FAF4FBF4F71F48D85882359F0809132
:10382000E42C9091E52C0296BC0187E39DE20E9476
:10383000820664C029813A814B815C8189859A85A1
:10384000AB85BC85820F931FA41FB51F8D839E83FC
:10385000AF83B8872091E42C3091E52C8D819E8137
:10386000AF81B885F90182839383A483B5832D81C9
:103870003E814F81588589819A81AB81BC8128170F
:1038800039074A075B0778F48091E42C9091E52C86
:103890009C012E5F3F4F80912A2D90912B2DB901D5
:1038A0000E94CD062BC08091E42C9091E52C9C01C8
:1038B0002E5F3F4F8091282D9091292DB9010E94B4
:1038C000CD0680914D2D90914E2DA0914F2DB09110
:1038D000502D2D813E814F815885281739074A0781
:1038E0005B0760F48D819E81AF81B88580934D2DFB
:1038F00090934E2DA0934F2DB093502D00002D96F8
:10390000CDBFDEBFDF91CF910895EF92FF920F936D
:10391000CF93DF931F92CDB7DEB719820E94162195
:1039200080916E2D90916F2D892B91F00F2EF0E7E5
:10393000EF2EFDE2FF2EF02D03E020E030E048EC1A
:1039400050E069E070E28BE99DE10E94AF1189834C
:1039500089810F90DF91CF910F91FF90EF900895A3
:10396000CF92DF92EF92FF920F931F93CF93DF934B
:10397000CDB7DEB76797CDBFDEBF8B879C876D87DE
:103980002E873F87488B598B0A8B1B8BCC8ADD8A0D
:10399000EE8AFF8A198280916E2D90916F2D892B6E
:1039A00009F444C08D858A838E859F85A889B9894D
:1039B0008B839C83AD83BE838B859C858F83988707
:1039C0008D85863034F50E947B19823099F4E09120
:1039D0006E2DF0916F2D8C899D89AE89BF89BE01B6
:1039E0006E5F7F4F00E09C01AD01CF010E94810C12
:1039F00089831CC080916E2D90916F2DBE016E5FEA
:103A00007F4F00E020E030E0A9010E94810C898313
:103A10000DC080916E2D90916F2D4A895B89BE01FA
:103A20006E5F7F4F20E00E94430D898389816796F6
:103A3000CDBFDEBFDF91CF911F910F91FF90EF902F
:103A4000DF90CF900895CF92DF92EF92FF920F9385
:103A50001F93CF93DF93CDB7DEB72B97CDBFDEBFDC
:103A60006C837D838E839F83288739874A875B8712
:103A700080916A2D90916B2DFC0187819085FC01CE
:103A80008085918589839A8389819A8102960E9493
:103A90004E0789819A81FC0182898130B1F5898143
:103AA0009A81FC0126853785408951898C819D81C9
:103AB000AE81BF81820F931FA41FB51FEC80FD80D4
:103AC0000E811F81288539854A855B85E981FA81C8
:103AD0006701780189019A01AC01BD01CF010E9403
:103AE000B91E882391F08C819D81AE81BF81E981CF
:103AF000FA81C12CD12C760100E010E09C01AD01CF
:103B000060E0CF010E94B01C8B8389819A81FC0107
:103B10002589368989819A81F901199500002B96AA
:103B2000CDBFDEBFDF91CF911F910F91FF90EF903E
:103B3000DF90CF900895CF93DF93CDB7DEB727976F
:103B4000CDBFDEBF8E839F83CE0105960E94361EB9
:103B5000DC01CB0189839A83AB83BC832D8189816E
:103B60009A81AB81BC81422FBC01CD010E94BB1D5B
:103B70000E94521FE9CFEF92FF920F931F93CF93B2
:103B8000DF93CDB7DEB72A97CDBFDEBF6E837F83CD
:103B9000888799874A870E940514CE0105960E945E
:103BA000741EDC01CB0189839A83AB83BC838D8136
:103BB000882309F04EC08A858823E1F42E813F8155
:103BC0004885598589819A81AB81BC818217930789
:103BD000A407B50778F00E94121429813A814B811D
:103BE0005C818E819F81A885B985BC01CD010E9431
:103BF000231D31C08A85882359F080916C2D9091C6
:103C00006D2DFC01908181E0992309F080E08A8785
:103C10002E813F814885598589819A81AB81BC81FC
:103C200079018A01E81AF90A0A0B1B0BD801C701AE
:103C3000E0916E2DF0916F2D2A85AC01BD01CF0171
:103C40000E9461110E941214882329F40E94CC0959
:103C500002C00E94121400002A96CDBFDEBFDF9181
:103C6000CF911F910F91FF90EF900895CF93DF9325
:103C700000D000D0CDB7DEB78D839E8380916A2DB2
:103C800090916B2DFC01908181E0992309F080E0F7
:103C9000282F8D819E81FC0120838D819E81FC01D6
:103CA0008081882389F480916A2D90916B2DFC018D
:103CB00087819085FC0180819181A281B381898374
:103CC0009A83AB83BC8304C019821A821B821C8234
:103CD00089819A81AB81BC81BC01CD012696CDBF83
:103CE000DEBFDF91CF910895CF93DF9300D000D056
:103CF000CDB7DEB78D839E830E94A914DC01CB0172
:103D000089839A83AB83BC838091722D9091732DAC
:103D1000A091742DB091752D29813A814B815C81E0
:103D2000281739074A075B0740F40E945C208D8101
:103D30009E8121E0FC01208304C08D819E81FC01D5
:103D4000108289819A81AB81BC818093722D90937E
:103D5000732DA093742DB093752D89819A81AB81B9
:103D6000BC81BC01CD012696CDBFDEBFDF91CF91D6
:103D70000895CF92DF92EF92FF920F931F93CF930C
:103D8000DF93CDB7DEB72F97CDBFDEBF8A839B838E
:103D90004C835D836E837F83088719872A873B87DF
:103DA000CC86DD86EE86FF8619822A813B818C8156
:103DB0009D81AE81BF81F90182839383A483B58302
:103DC0008A819B812A813B81FC01228733872C8158
:103DD0003D814E815F8188859985AA85BB85821743
:103DE0009307A407B50740F1288539854A855B8587
:103DF0008C859D85AE85BF85281B390B4A0B5B0BD7
:103E00008A819B81FC0186859785A089B1892817C5
:103E100039074A075B0718F081E0898336C08A8139
:103E20009B819C012E5F3F4F80916C2D90916D2D59
:103E3000B9010E94CD0629C0288539854A855B8550
:103E40008C859D85AE85BF85281739074A075B0796
:103E500080F42C813D814E815F818C859D85AE856E
:103E6000BF85281739074A075B0718F081E0898367
:103E70000CC08A819B819C012E5F3F4F80916A2DEF
:103E800090916B2DB9010E94CD0689812F96CDBFEF
:103E9000DEBFDF91CF911F910F91FF90EF90DF90E8
:103EA000CF900895CF92DF92EF92FF920F931F93DE
:103EB000CF93DF93CDB7DEB76597CDBFDEBFE0C050
:103EC0008A858823FCF4CE010A96019689839A8319
:103ED00089819A81FC012081318189819A81FC014B
:103EE00084819581A681B78149815A81FA01028036
:103EF000F381E02DEC8BFD8BAC01BD018C899D899C
:103F0000F90119958A8588230CF4BAC08F859889A0
:103F10008B839C838B819C81FC0184859585892B77
:103F200029F08B819C8102960E944E07CE01439618
:103F30000E94741EDC01CB018D839E83AF83B88702
:103F40008A85082E000C990B092E000CAA0BBB0BBE
:103F500040E050E029E030E0841B950B281739073A
:103F600008F48DC0FC018827E250FF4F8F4F0C945E
:103F70008336EB84FC840D851E852B853C854D8521
:103F80005E858B819C81FC0186859785A089B1899E
:103F9000820F931FA41FB51F2D813E814F8158852D
:103FA000EB81FC816701780189019A01AC01BD01B7
:103FB000CF010E94B91E882309F462C08B819C81C5
:103FC000FC01258936898B819C81F90119958B81AA
:103FD0009C81FC018289813009F052C02B853C858F
:103FE0004D855E858B819C81FC0186859785A089A6
:103FF000B189820F931FA41FB51FEB81FC81C12CD7
:10400000D12C760100E010E09C01AD0160E0CF0111
:104010000E94B01C898734C08B859C85AD85BE8588
:104020002B813C81F90186879787A08BB18B8B818F
:104030009C81FC0126853785408951898D819E812F
:10404000AF81B885820F931FA41FB51FED80FE803E
:104050000F8118852D813E814F815885EB81FC8130
:104060006701780189019A01AC01BD01CF010E946D
:10407000B91E06C08B819C810E94270601C00000EA
:1040800080916E2D90916F2DBE01665F7F4F20E075
:1040900030E0A9010E94A30D882309F011CF000090
:1040A0006596CDBFDEBFDF91CF911F910F91FF903D
:1040B000EF90DF90CF900895CF92DF92EF92FF9232
:1040C0000F931F93CF93DF93CDB7DEB72D97CDBF5F
:1040D000DEBF82C080916A2D90916B2DFC0187819B
:1040E0009085FC0180819181A281B38189839A832B
:1040F000AB83BC8380916A2D90916B2DFC018781ED
:104100009085FC01808591858D839E838D819E8124
:1041100002960E944E078D819E81FC012589368979
:104120008D819E81F90119958D819E81FC01828985
:10413000813009F051C08D819E81FC012685378533
:104140004089518989819A81AB81BC81820F931FFB
:10415000A41FB51F8F839887A987BA872F813885B9
:1041600049855A8589819A81AB81BC8182179307E1
:10417000A407B507F8F42D813E818F819885A98524
:10418000BA85F90182839383A483B5838D819E814F
:104190002D813E81FC01228733878D819E819C0188
:1041A0002E5F3F4F80916A2D90916B2DB9010E9437
:1041B000CD0612C089819A81AB81BC81ED81FE81DF
:1041C000C12CD12C760100E010E09C01AD0160E033
:1041D000CF010E94B01C8B8780916A2D90916B2D2E
:1041E000FC018081882309F075CF80916A2D909120
:1041F0006B2D8C879D8780916C2D90916D2D809378
:104200006A2D90936B2D8C859D8580936C2D90935A
:104210006D2D00002D96CDBFDEBFDF91CF911F9198
:104220000F91FF90EF90DF90CF900895CF93DF93A1
:10423000CDB7DEB7F091A200FF93F87FF093A20014
:1042400080916E2D90916F2D892BE9F484E59DE28C
:104250000E9435068FE59DE20E94350684E59DE2C9
:1042600080936A2D90936B2D8FE59DE280936C2D4A
:1042700090936D2D40E069E085E00E94B20B809341
:104280006E2D90936F2DFF91F093A2000000DF91AF
:10429000CF9108950F931F93CF93DF93CDB7DEB7E0
:1042A0006497CDBFDEBF8B879C876D877E872F8706
:1042B000388B498B5A8B0B8B1C8B8EEF8A838B85AB
:1042C0009C858B839C838D859E858D839E838F8526
:1042D0009889A989BA898F839887A987BA87809195
:1042E0006E2D90916F2D4B895C89BE016E5F7F4F63
:1042F00020E00E94430D898389816496CDBFDEBF93
:10430000DF91CF911F910F910895CF93DF93CDB798
:10431000DEB780E590E020E530E0F9012081216002
:10432000FC01208380E590E0FC018181882F90E0F2
:1043300081709927892BB1F380E00E94E6018EE11C
:104340000E94AF0160E080E00E94CF0143E060E0A6
:1043500080E40E947A0180E590E020E530E0F901F8
:1043600020812860FC01208380E590E0FC018181B0
:10437000882F90E088709927892BB1F364E080EC56
:104380000E94970180E590E020E530E0F90120816E
:104390002061FC01208360E080E00E94CF0180E585
:1043A00090E0FC018181882F90E080719927892B12
:1043B000B1F384E00E94E60187E00E94AF010000B3
:1043C000DF91CF910895EF92FF920F93CF93DF93F8
:1043D0001F92CDB7DEB70E94F23389830E948521F8
:1043E0000E94172A0E94A6028093A82D9093A92DBF
:1043F000E12CF12C01E020E030E042ED50E061E101
:1044000070E28FE595E20E94AF11E12CF12C03E000
:1044100020E030E048EC50E06AE170E287EC94E2A2
:104420000E94AF11E12CF12C02E020E030E04AEFD5
:1044300050E063E270E28DEF93E20E94AF11E12C55
:10444000F12C02E020E030E040E951E06EE270E261
:1044500087E392E20E94AF110E94B91380E090E0DE
:104460000F90DF91CF910F91FF90EF900895CF9330
:10447000DF9300D01F92CDB7DEB78B839C83198268
:104480001A8280E896E028E0FC01218306C061E002
:1044900070E080E090E00E948B138091A82D9091B5
:1044A000A92D892BA1F380E896E028E0FC01268362
:1044B0008091A82D9091A92D40E050E0BA010E9472
:1044C0000104DC01CB0189839A830E94622C85E37D
:1044D00090E2892F8F9385E390E28F931F921F9232
:1044E0001F921F920E94742C0F900F900F900F90AC
:1044F0000F900F9080917C2D882F90E08130910556
:1045000009F49FC08230910509F4F3C0892B09F0AA
:104510004CC10E94AA250E947E2680917D2D882371
:10452000A9F485E490E2892F8F9385E490E28F933C
:104530001F921F921F9283E08F930E94742C0F9002
:104540000F900F900F900F900F9014C08AE590E29B
:10455000892F8F938AE590E28F931F921F921F926B
:1045600083E08F930E94742C0F900F900F900F9008
:104570000F900F9089819A8199237CF481E0809338
:104580007C2D8091A82D9091A92D42E050E060E013
:1045900070E00E94010410927E2D89819A81882703
:1045A0009072892B79F082E080937C2D8091A82DE8
:1045B0009091A92D42E050E060E070E00E9401047B
:1045C00010927E2D89819A8188279270892B69F0BB
:1045D00081E080937D2D8091A82D9091A92D42E0BE
:1045E00050E060E070E00E94010489819A81882790
:1045F0009870892B61F010927D2D8091A82D90915B
:10460000A92D42E050E060E070E00E94010480913A
:104610007D2D813009F0C4C08FE690E2892F8F9301
:104620008FE690E28F931F921F921F9282E08F93EA
:104630000E94742C0F900F900F900F900F900F907E
:10464000AFC00E94AA2580917E2D882F90E0BC01EA
:1046500082E090E00E94522783E790E2892F8F93B7
:1046600083E790E28F931F921F921F9283E08F93B4
:104670000E94742C0F900F900F900F900F900F903E
:1046800089819A8188279170892B51F080917E2DA4
:10469000882F90E041E0BC0180E090E00E94A627D6
:1046A00089819A8188279470892B51F080917E2D81
:1046B000882F90E04FEFBC0180E090E00E94A62799
:1046C00089819A8188279071892B59F080917E2D5C
:1046D0008F5F80937E2D80917E2D833010F010921D
:1046E0007E2D89819A8199230CF05CC010927C2DDB
:1046F00059C00E947E2680917E2D882F90E0BC01BB
:1047000081E090E00E94522783E790E2892F8F9307
:1047100083E790E28F931F921F921F9283E08F9303
:104720000E94742C0F900F900F900F900F900F908D
:1047300089819A8188279170892B51F080917E2DF3
:10474000882F90E041E0BC0181E090E00E94A62724
:1047500089819A8188279470892B51F080917E2DD0
:10476000882F90E04FEFBC0181E090E00E94A627E7
:1047700089819A8188279071892B59F080917E2DAB
:104780008F5F80937E2D80917E2D833010F010926C
:104790007E2D89819A8199233CF410927C2D04C04E
:1047A000000003C0000001C000000E9466288823AA
:1047B00071F080917D2D813051F48091A82D9091E0
:1047C000A92D42E050E060E070E00E944C0480912E
:1047D000A82D9091A92D40E05FEF60E070E00E946D
:1047E000010480E896E028E0FC01258368EC70E095
:1047F00080E090E00E948B1356CECF93DF931F9200
:104800001F92CDB7DEB789839A830E94683321E077
:1048100044E060EA76E080E00E94CD3121E045E0AE
:1048200060EA76E081E00E94CD3121E046E060EA76
:1048300076E082E00E94CD3121E047E060EA76E058
:1048400083E00E94CD3160E080E00E94A733813098
:1048500051F48091A82D9091A92D40E051E060E0A5
:1048600070E00E944C0460E081E00E94A733813038
:1048700051F48091A82D9091A92D40E054E060E082
:1048800070E00E944C0460E082E00E94A733813017
:1048900051F48091A82D9091A92D40E050E160E065
:1048A00070E00E944C0460E083E00E94A7338130F6
:1048B00051F48091A82D9091A92D40E050E460E042
:1048C00070E00E944C0461E080E00E94A7338230D7
:1048D00051F48091A82D9091A92D40E052E060E024
:1048E00070E00E944C0461E081E00E94A7338230B6
:1048F00051F48091A82D9091A92D40E058E060E0FE
:1049000070E00E944C0461E082E00E94A733823094
:1049100051F48091A82D9091A92D40E050E260E0E3
:1049200070E00E944C0461E083E00E94A733823073
:1049300051F48091A82D9091A92D40E050E86FEF9F
:104940007FEF0E944C046AE070E080E090E00E94FB
:104950008B1379CFCF93DF93CDB7DEB780E099E0AB
:1049600027E0FC01208380E099E0FC01118280E0D7
:1049700099E023E0FC01268380E099E021E13AE719
:10498000FC0126A337A30000DF91CF910895CF92B9
:10499000DF92EF92FF920F93CF93DF931F921F92BC
:1049A000CDB7DEB789839A830E94AA2482E18093DF
:1049B000782D8FE08093772D1092762D85E180936E
:1049C0007B2D83E280937A2D1092792D8091A82DF2
:1049D0009091A92DCC24CA94DC2C760100E021E032
:1049E00041E050E060E070E00E94C9028091762DC5
:1049F0008F5F8093762D8091762D8C333CF0809163
:104A0000772D8F5F8093772D1092762D8091772D63
:104A10008C333CF08091782D8F5F8093782D1092AD
:104A2000772D8091782D883114F01092782D66E9D9
:104A300070E080E090E00E948B13C8CF1F920F922D
:104A400000903F000F92112400903B000F922F9393
:104A50003F934F935F936F937F938F939F93AF9306
:104A6000BF93EF93FF93CF93DF931F92CDB7DEB742
:104A700019828091A82D9091A92D9E012F5F3F4F03
:104A800041E050E060E070E00E94B90500000F9046
:104A9000DF91CF91FF91EF91BF91AF919F918F9156
:104AA0007F916F915F914F913F912F910F90009265
:104AB0003B000F9000923F000F901F901895CF92EF
:104AC000DF92EF92FF920F93CF93DF931F921F928B
:104AD000CDB7DEB789839A8380EA96E02FE0FC01A8
:104AE000218380EA96E02FE0FC01248306C061E088
:104AF00070E080E090E00E948B138091A82D90914F
:104B0000A92D892BA1F38091A82D9091A92DCC24BA
:104B1000CA94DC2C760100E020E042E050E060E046
:104B200070E00E94C90280EA96E02FE0FC01268333
:104B30006EE170E080E090E00E948B1380EA96E0E6
:104B40002FE0FC01258364E670E080E090E00E94A5
:104B50008B13D9CFCF93DF93CDB7DEB788E890E240
:104B6000892F8F9388E890E28F931F9283E08F9331
:104B70001F9281E08F930E94742C0F900F900F90E2
:104B80000F900F900F908091782D8A30ECF08091EB
:104B9000782D082E000C990B292F2F938F938AE9DB
:104BA00090E2892F8F938AE990E28F931F928CE095
:104BB0008F931F9281E08F930E94742C8DB79EB7C4
:104BC0000896CDBFDEBF1CC08091782D082E000C4A
:104BD000990B292F2F938F938AE990E2892F8F9336
:104BE0008AE990E28F931F928DE08F931F9281E06C
:104BF0008F930E94742C8DB79EB70896CDBFDEBFF1
:104C00008091772D8A30ECF08091772D082E000C62
:104C1000990B292F2F938F938AE990E2892F8F93F5
:104C20008AE990E28F931F928FE08F931F9281E029
:104C30008F930E94742C8DB79EB70896CDBFDEBFB0
:104C40001CC08091772D082E000C990B292F2F93D3
:104C50008F938AE990E2892F8F938AE990E28F936C
:104C60001F9280E18F931F9281E08F930E94742C9A
:104C70008DB79EB70896CDBFDEBF8091762D8A3066
:104C8000ECF08091762D082E000C990B292F2F9394
:104C90008F938AE990E2892F8F938AE990E28F932C
:104CA0001F9282E18F931F9281E08F930E94742C58
:104CB0008DB79EB70896CDBFDEBF1CC08091762D04
:104CC000082E000C990B292F2F938F938AE990E2DD
:104CD000892F8F938AE990E28F931F9283E18F93BC
:104CE0001F9281E08F930E94742C8DB79EB7089617
:104CF000CDBFDEBF0000DF91CF910895CF93DF934A
:104D0000CDB7DEB78DE990E2892F8F938DE990E2E0
:104D10008F931F9283E08F931F9282E08F930E9464
:104D2000742C0F900F900F900F900F900F90809118
:104D30007B2D8A30ECF080917B2D082E000C990B96
:104D4000292F2F938F938AE990E2892F8F938AE9F5
:104D500090E28F931F928CE08F931F9282E08F934B
:104D60000E94742C8DB79EB70896CDBFDEBF1CC0C5
:104D700080917B2D082E000C990B292F2F938F9358
:104D80008AE990E2892F8F938AE990E28F931F92AC
:104D90008DE08F931F9282E08F930E94742C8DB7C9
:104DA0009EB70896CDBFDEBF80917A2D8A30ECF099
:104DB00080917A2D082E000C990B292F2F938F9319
:104DC0008AE990E2892F8F938AE990E28F931F926C
:104DD0008FE08F931F9282E08F930E94742C8DB787
:104DE0009EB70896CDBFDEBF1CC080917A2D082EDD
:104DF000000C990B292F2F938F938AE990E2892F2A
:104E00008F938AE990E28F931F9280E18F931F9294
:104E100082E08F930E94742C8DB79EB70896CDBF09
:104E2000DEBF8091792D8A30ECF08091792D082EAB
:104E3000000C990B292F2F938F938AE990E2892FE9
:104E40008F938AE990E28F931F9282E18F931F9252
:104E500082E08F930E94742C8DB79EB70896CDBFC9
:104E6000DEBF1CC08091792D082E000C990B292FD4
:104E70002F938F938AE990E2892F8F938AE990E2AA
:104E80008F931F9283E18F931F9282E08F930E94F2
:104E9000742C8DB79EB70896CDBFDEBF0000DF91A2
:104EA000CF910895CF93DF9300D01F92CDB7DEB797
:104EB00089839A836B837C8389819A810197F1F43A
:104EC0002B813C81C901880F991F820F931F0C967B
:104ED0002FEA30E2232F2F932FEA30E22F93292F4E
:104EE0002F938F931F9281E08F930E94742C0F90C9
:104EF0000F900F900F900F900F9021C089819A8191
:104F00000297E9F42B813C81C901880F991F820F18
:104F1000931F0C9622EB30E2232F2F9322EB30E2EB
:104F20002F93292F2F938F931F9282E08F930E94AC
:104F3000742C0F900F900F900F900F900F90000017
:104F40002496CDBFDEBFDF91CF910895CF93DF933D
:104F5000CDB7DEB72597CDBFDEBF89839A836B833C
:104F60007C834D8389819A81892B09F04EC08B8186
:104F70009C8181309105E1F08230910579F1892B96
:104F800009F09DC08091782D982F8D81890F809395
:104F9000782D8091782D88231CF487E18093782DDB
:104FA0008091782D88310CF47FC01092782D7CC0D0
:104FB0008091772D982F8D81890F8093772D809107
:104FC000772D88231CF48BE38093772D8091772DA8
:104FD0008C330CF46BC01092772D68C08091762DC5
:104FE000982F8D81890F8093762D8091762D88233F
:104FF0001CF48BE38093762D8091762D8C330CF40A
:1050000057C01092762D000053C089819A81019774
:1050100009F055C08B819C8181309105D9F0823097
:10502000910569F1892B09F04AC080917B2D982F59
:105030008D81890F80937B2D80917B2D88231CF49B
:1050400087E180937B2D80917B2D88319CF110929C
:105050007B2D30C080917A2D982F8D81890F809380
:105060007A2D80917A2D88231CF48BE380937A2DFE
:1050700080917A2D8C3304F110927A2D1DC080918D
:10508000792D982F8D81890F8093792D8091792D9D
:1050900088231CF48BE38093792D8091792D8C33B8
:1050A0006CF01092792D0AC0000009C0000007C002
:1050B000000005C0000003C0000001C000000000A7
:1050C0002596CDBFDEBFDF91CF910895CF93DF93BB
:1050D000CDB7DEB790917B2D8091782D981771F424
:1050E00090917A2D8091772D981741F49091792D98
:1050F0008091762D981711F481E001C080E0DF9156
:10510000CF9108951F920F9200903F000F921124AB
:1051100000903B000F922F933F934F935F936F93B9
:105120007F938F939F93AF93BF93EF93FF93CF930F
:10513000DF931F92CDB7DEB719828091AE2D90918B
:10514000AF2D9E012F5F3F4F41E050E060E070E0E7
:105150000E94B90560E080E09BE00E94080280E0C8
:105160009BE0FC01168200000F90DF91CF91FF9130
:10517000EF91BF91AF919F918F917F916F915F91CF
:105180004F913F912F910F9000923B000F90009212
:105190003F000F901F901895CF92DF92EF92FF92F1
:1051A0000F93CF93DF9300D01F92CDB7DEB7698303
:1051B0007A838B839C8389819A81AB81BC8102979E
:1051C000A105B10540F482E090E0A0E0B0E0898361
:1051D0009A83AB83BC8380E09BE021E0FC012683C3
:1051E00080E09BE0FC0110A211A260E080E09BE067
:1051F0000E94240289819A81AB81BC818E3F9F4F9E
:10520000A105B10598F420E03BE089819A81AB814A
:10521000BC81B695A79597958795F90186A397A325
:1052200065E080E09BE00E9408021FC089819A81AE
:10523000AB81BC8180349244AF40B105B0F420E032
:105240003BE089819A81AB81BC81689414F8B69562
:10525000A795979587951694D1F7F90186A397A3FB
:1052600067E080E09BE00E9408028091AE2D909163
:10527000AF2D0F2EF4EFCF2EDD24D394E12CF12CA3
:10528000F02D00E021E041E050E060E070E00E949D
:10529000C90200002496CDBFDEBFDF91CF910F91F0
:1052A000FF90EF90DF90CF900895CF93DF931F9200
:1052B000CDB7DEB7898389818F7089838981829593
:1052C000807F898380E096E020E036E0F901348138
:1052D00029812F602323FC01248380E096E020E0D5
:1052E00036E0F90134812981232BFC01248300005D
:1052F0000F90DF91CF910895CF93DF931F92CDB799
:10530000DEB789838981882331F080E696E021E049
:10531000FC01258305C080E696E021E0FC012683A0
:1053200000000F90DF91CF910895CF93DF931F92EC
:10533000CDB7DEB789838981882331F080E696E096
:1053400022E0FC01258305C080E696E022E0FC0116
:10535000268300000F90DF91CF910895CF93DF93C4
:105360001F92CDB7DEB789838981882331F080E62B
:1053700096E024E0FC01258305C080E696E024E069
:10538000FC01268300000F90DF91CF910895CF9309
:10539000DF93CDB7DEB781E00E94AE2961E070E017
:1053A00080E090E00E94CC2880E00E94AE290000BE
:1053B000DF91CF910895CF93DF931F92CDB7DEB7E2
:1053C0008983898182958F700E94552980E00E948F
:1053D0007C2980E00E9495290E94C72989818F70CD
:1053E0000E9455290E94C72900000F90DF91CF919C
:1053F0000895CF93DF931F92CDB7DEB7898389815C
:1054000082958F700E94552981E00E947C2980E05E
:105410000E9495290E94C72989818F700E94552971
:105420000E94C72900000F90DF91CF910895EF925D
:10543000FF920F93CF93DF93CDB7DEB780E096E076
:1054400020E1FC01218380E096E020E2FC01218341
:1054500080E096E020E4FC01218380E096E020E8F3
:10546000FC01218380E696E021E0FC01218380E6B7
:1054700096E022E0FC01218380E696E024E0FC0136
:10548000218380E096E020E036E0F90124812F704E
:10549000FC01248380E696E020E636E0F9012481D1
:1054A000287FFC01248340E066E188E00E94B20B83
:1054B0008093AC2D9093AD2D0E94A6028093AE2DCB
:1054C0009093AF2DE12CF12C01E020E030E04EE58F
:1054D00051E065EB70E285E19BE20E94AF110000B4
:1054E000DF91CF910F91FF90EF900895CF93DF93CD
:1054F00000D01F92CDB7DEB789839A836B837C83FC
:1055000089819A818130910589F0823091051CF45E
:10551000892B39F01AC08230910569F0039781F028
:1055200014C08B8180580E94DB290FC08B8180546E
:105530000E94DB290AC08B818C560E94DB2905C0A2
:105540008B818C520E94DB29000067E270E080E0D2
:1055500090E00E94CC2800002496CDBFDEBFDF91F2
:10556000CF910895CF93DF931F92CDB7DEB7898394
:1055700089810E94F9296BE270E080E090E00E944E
:10558000CC2800000F90DF91CF910895CF93DF9347
:1055900000D01F92CDB7DEB78B839C8319821A820D
:1055A00019C089819A812B813C81820F931FFC0154
:1055B00080818823A1F089819A812B813C81820F8F
:1055C000931FFC0180810E94B22A89819A810196F1
:1055D00089839A8389819A8144971CF301C00000D2
:1055E00000002496CDBFDEBFDF91CF910895CF9309
:1055F000DF9300D000D0CDB7DEB789839A836B8369
:105600007C834D835E832B813C8189819A81B901A2
:105610000E94762A8D819E810E94C62A00002696CD
:10562000CDBFDEBFDF91CF910895CF93DF93CDB78C
:10563000DEB7C057D109CDBFDEBF9E0121593F4F14
:10564000F9018083918319821A821B821C821D8238
:105650001E8226C01F8218861AC02D813E8144E119
:10566000429FC001439F900D11249E012F5F3F4F29
:10567000280F391F8F819885820F931F089620E28B
:10568000FC0120838F81988501968F8398878F8175
:105690009885449714F38D819E8101968D839E8316
:1056A0008D819E810497B4F260E47CE980E090E013
:1056B0000E94CC2883E00E94552968E873E180E0CD
:1056C00090E00E94CC280E94C72960EA70E080E048
:1056D00090E00E94CC280E94C72960EA70E080E038
:1056E00090E00E94CC280E94C72960EA70E080E028
:1056F00090E00E94CC2882E00E9455290E94C72990
:1057000088E20E94DB2980E10E94DB298CE00E9474
:10571000DB2986E00E94DB2968EC70E080E090E005
:105720000E948B138091AE2D9091AF2D40E050E000
:10573000BA010E940104DC01CB01892B8A2B8B2B3F
:1057400009F496C08091AE2D9091AF2D42E050E0CB
:1057500060E070E00E94010419821A8226C01B8258
:105760001C821AC029813A8144E1429FC001439FB3
:10577000900D11249E012F5F3F4F280F391F8B8101
:105780009C81820F931F089620E2FC0120838B816D
:105790009C8101968B839C838B819C81449714F31D
:1057A00089819A81019689839A8389819A81049754
:1057B000B4F25EC08091AC2D9091AD2DBE01675AC0
:1057C0007F4F2FEF3FEFA9010E94A30D882309F41B
:1057D0004FC019821A8232C0CE01875A9F4FFC01F6
:1057E0008081482F50E0CE01875A9F4FFC01818174
:1057F000282F30E089819A81820F931FBE01675A5A
:105800007F4F29813A81260F371F2E5F3F4FF901C5
:10581000608174E1749F9001759F300D1124AE0179
:105820004F5F5F4F240F351F820F931F0896FC01B7
:10583000608389819A81019689839A83CE01875AF0
:105840009F4FFC018181282F30E089819A81820F4E
:10585000931F44976CF49E01275A3F4F89819A8188
:10586000820F931F0296FC018081882309F0B4CF38
:105870008091AC2D9091AD2D0E945C0F882309F092
:1058800099CF19821A8219C09E01275F3F4F498123
:105890005A8164E1649FC001659F900D1124280F17
:1058A000391F89819A81A90160E070E00E94F72A7E
:1058B00089819A81019689839A8389819A81049743
:1058C0001CF32ACFCF93DF93CDB7DEB78091AE2DF7
:1058D0009091AF2D42E050E060E070E00E944C04F7
:1058E0000000DF91CF910895CF93DF931F921F9215
:1058F000CDB7DEB7CE010E9689839A8329813A818E
:105900004C855D856A857B85888599850E948E2C6E
:1059100000000F900F90DF91CF9108950F93CF93D8
:10592000DF93CDB7DEB7EC97CDBFDEBF8DAB9EABBF
:105930006FAB78AF49AF5AAF2BAF3CAF19821A8229
:105940001B821C820BC08B819C818158924DFC0173
:1059500010828B819C8101968B839C838B819C819F
:1059600044978CF31D821E820BC08D819E818D56C3
:10597000924DFC0110828D819E8101968D839E83C4
:105980008D819E8144978CF3BEC18D89853209F04B
:10599000A0C189AD9AAD9C012F5F3F4F29AF3AAFAF
:1059A000FC0180818D8B8D89882F90E08536910553
:1059B00009F446C18636910554F48336910501F108
:1059C000843691050CF070C0859769F09CC18337CF
:1059D000910571F18837910509F4A8C086369105C3
:1059E00009F4E6C090C189819A818D56924D25E2D5
:1059F000FC01208389819A81019689839A8383C1DE
:105A00008BAD9CAD9C012E5F3F4F2BAF3CAFFC019B
:105A1000808191818E8B89819A818D56924D2E89BC
:105A2000FC01208389819A81019689839A836BC1C5
:105A30008BAD9CAD9C012E5F3F4F2BAF3CAFFC016B
:105A4000808191818F8B988F1F82188617C0298142
:105A50003A818F819885820F931F2F8138854F89D6
:105A6000588D240F351FF90120818D56924DFC0170
:105A700020838F81988501968F8398878F89988D51
:105A80000E949B369C018F81988582179307F8F2BC
:105A90008F89988D0E949B369C0189819A81820F03
:105AA000931F89839A832FC18BAD9CAD9C012E5F80
:105AB0003F4F2BAF3CAFFC0180819181898F9A8F42
:105AC000898D9A8D4AE050E06FE77DE20E94A4360E
:105AD00019861A8615C029813A8189859A85820F8F
